{
	"Vote.sol": {
		"Vote": {
			"abi": [
				{
					"inputs": [
						{
							"internalType": "address[]",
							"name": "_whitelistedAddresses",
							"type": "address[]"
						}
					],
					"stateMutability": "nonpayable",
					"type": "constructor"
				},
				{
					"anonymous": false,
					"inputs": [
						{
							"indexed": true,
							"internalType": "address",
							"name": "voter",
							"type": "address"
						},
						{
							"indexed": false,
							"internalType": "enum Vote.Candidates",
							"name": "candidate",
							"type": "uint8"
						}
					],
					"name": "Voted",
					"type": "event"
				},
				{
					"anonymous": false,
					"inputs": [
						{
							"indexed": true,
							"internalType": "address",
							"name": "user",
							"type": "address"
						}
					],
					"name": "Whitelisted",
					"type": "event"
				},
				{
					"inputs": [],
					"name": "getCurrentVotes",
					"outputs": [
						{
							"internalType": "uint256[4]",
							"name": "",
							"type": "uint256[4]"
						}
					],
					"stateMutability": "view",
					"type": "function"
				},
				{
					"inputs": [],
					"name": "getFinalResults",
					"outputs": [
						{
							"internalType": "uint256[4]",
							"name": "",
							"type": "uint256[4]"
						}
					],
					"stateMutability": "view",
					"type": "function"
				},
				{
					"inputs": [
						{
							"internalType": "address",
							"name": "",
							"type": "address"
						}
					],
					"name": "hasVoted",
					"outputs": [
						{
							"internalType": "bool",
							"name": "",
							"type": "bool"
						}
					],
					"stateMutability": "view",
					"type": "function"
				},
				{
					"inputs": [],
					"name": "hasVotingEnded",
					"outputs": [
						{
							"internalType": "bool",
							"name": "",
							"type": "bool"
						}
					],
					"stateMutability": "view",
					"type": "function"
				},
				{
					"inputs": [],
					"name": "moderator",
					"outputs": [
						{
							"internalType": "address",
							"name": "",
							"type": "address"
						}
					],
					"stateMutability": "view",
					"type": "function"
				},
				{
					"inputs": [],
					"name": "totalVoters",
					"outputs": [
						{
							"internalType": "uint256",
							"name": "",
							"type": "uint256"
						}
					],
					"stateMutability": "view",
					"type": "function"
				},
				{
					"inputs": [
						{
							"internalType": "enum Vote.Candidates",
							"name": "_candidate",
							"type": "uint8"
						}
					],
					"name": "vote",
					"outputs": [],
					"stateMutability": "nonpayable",
					"type": "function"
				},
				{
					"inputs": [
						{
							"internalType": "uint8",
							"name": "",
							"type": "uint8"
						}
					],
					"name": "votes",
					"outputs": [
						{
							"internalType": "uint256",
							"name": "",
							"type": "uint256"
						}
					],
					"stateMutability": "view",
					"type": "function"
				},
				{
					"inputs": [],
					"name": "votesCount",
					"outputs": [
						{
							"internalType": "uint256",
							"name": "",
							"type": "uint256"
						}
					],
					"stateMutability": "view",
					"type": "function"
				},
				{
					"inputs": [
						{
							"internalType": "address",
							"name": "",
							"type": "address"
						}
					],
					"name": "whitelist",
					"outputs": [
						{
							"internalType": "bool",
							"name": "",
							"type": "bool"
						}
					],
					"stateMutability": "view",
					"type": "function"
				}
			],
			"devdoc": {
				"kind": "dev",
				"methods": {},
				"version": 1
			},
			"evm": {
				"assembly": "    /* \"Vote.sol\":125:2318  contract Vote {... */\n  mstore(0x40, 0x80)\n    /* \"Vote.sol\":497:835  constructor(address[] memory _whitelistedAddresses) {... */\n  callvalue\n  dup1\n  iszero\n  tag_1\n  jumpi\n  0x00\n  dup1\n  revert\ntag_1:\n  pop\n  mload(0x40)\n  sub(codesize, bytecodeSize)\n  dup1\n  bytecodeSize\n  dup4\n  codecopy\n  dup2\n  dup2\n  add\n  0x40\n  mstore\n  dup2\n  add\n  swap1\n  tag_2\n  swap2\n  swap1\n  tag_3\n  jump\t// in\ntag_2:\n    /* \"Vote.sol\":572:582  msg.sender */\n  caller\n    /* \"Vote.sol\":560:569  moderator */\n  0x00\n  dup1\n    /* \"Vote.sol\":560:582  moderator = msg.sender */\n  0x0100\n  exp\n  dup2\n  sload\n  dup2\n  0xffffffffffffffffffffffffffffffffffffffff\n  mul\n  not\n  and\n  swap1\n  dup4\n  0xffffffffffffffffffffffffffffffffffffffff\n  and\n  mul\n  or\n  swap1\n  sstore\n  pop\n    /* \"Vote.sol\":607:628  _whitelistedAddresses */\n  dup1\n    /* \"Vote.sol\":607:635  _whitelistedAddresses.length */\n  mload\n    /* \"Vote.sol\":593:604  totalVoters */\n  0x04\n    /* \"Vote.sol\":593:635  totalVoters = _whitelistedAddresses.length */\n  dup2\n  swap1\n  sstore\n  pop\n    /* \"Vote.sol\":651:657  uint i */\n  0x00\n    /* \"Vote.sol\":646:828  for (uint i = 0; i < _whitelistedAddresses.length; i++) {... */\ntag_6:\n    /* \"Vote.sol\":667:688  _whitelistedAddresses */\n  dup2\n    /* \"Vote.sol\":667:695  _whitelistedAddresses.length */\n  mload\n    /* \"Vote.sol\":663:664  i */\n  dup2\n    /* \"Vote.sol\":663:695  i < _whitelistedAddresses.length */\n  lt\n    /* \"Vote.sol\":646:828  for (uint i = 0; i < _whitelistedAddresses.length; i++) {... */\n  iszero\n  tag_7\n  jumpi\n    /* \"Vote.sol\":755:759  true */\n  0x01\n    /* \"Vote.sol\":717:726  whitelist */\n  dup1\n    /* \"Vote.sol\":717:752  whitelist[_whitelistedAddresses[i]] */\n  0x00\n    /* \"Vote.sol\":727:748  _whitelistedAddresses */\n  dup5\n    /* \"Vote.sol\":749:750  i */\n  dup5\n    /* \"Vote.sol\":727:751  _whitelistedAddresses[i] */\n  dup2\n  mload\n  dup2\n  lt\n  tag_9\n  jumpi\n  tag_10\n  tag_11\n  jump\t// in\ntag_10:\ntag_9:\n  0x20\n  mul\n  0x20\n  add\n  add\n  mload\n    /* \"Vote.sol\":717:752  whitelist[_whitelistedAddresses[i]] */\n  0xffffffffffffffffffffffffffffffffffffffff\n  and\n  0xffffffffffffffffffffffffffffffffffffffff\n  and\n  dup2\n  mstore\n  0x20\n  add\n  swap1\n  dup2\n  mstore\n  0x20\n  add\n  0x00\n  keccak256\n  0x00\n    /* \"Vote.sol\":717:759  whitelist[_whitelistedAddresses[i]] = true */\n  0x0100\n  exp\n  dup2\n  sload\n  dup2\n  0xff\n  mul\n  not\n  and\n  swap1\n  dup4\n  iszero\n  iszero\n  mul\n  or\n  swap1\n  sstore\n  pop\n    /* \"Vote.sol\":791:812  _whitelistedAddresses */\n  dup2\n    /* \"Vote.sol\":813:814  i */\n  dup2\n    /* \"Vote.sol\":791:815  _whitelistedAddresses[i] */\n  dup2\n  mload\n  dup2\n  lt\n  tag_12\n  jumpi\n  tag_13\n  tag_11\n  jump\t// in\ntag_13:\ntag_12:\n  0x20\n  mul\n  0x20\n  add\n  add\n  mload\n    /* \"Vote.sol\":779:816  Whitelisted(_whitelistedAddresses[i]) */\n  0xffffffffffffffffffffffffffffffffffffffff\n  and\n  0xaab7954e9d246b167ef88aeddad35209ca2489d95a8aeb59e288d9b19fae5a54\n  mload(0x40)\n  mload(0x40)\n  dup1\n  swap2\n  sub\n  swap1\n  log2\n    /* \"Vote.sol\":697:700  i++ */\n  dup1\n  dup1\n  0x01\n  add\n  swap2\n  pop\n  pop\n    /* \"Vote.sol\":646:828  for (uint i = 0; i < _whitelistedAddresses.length; i++) {... */\n  jump(tag_6)\ntag_7:\n  pop\n    /* \"Vote.sol\":497:835  constructor(address[] memory _whitelistedAddresses) {... */\n  pop\n    /* \"Vote.sol\":125:2318  contract Vote {... */\n  jump(tag_14)\n    /* \"#utility.yul\":7:82   */\ntag_15:\n    /* \"#utility.yul\":40:46   */\n  0x00\n    /* \"#utility.yul\":73:75   */\n  0x40\n    /* \"#utility.yul\":67:76   */\n  mload\n    /* \"#utility.yul\":57:76   */\n  swap1\n  pop\n    /* \"#utility.yul\":7:82   */\n  swap1\n  jump\t// out\n    /* \"#utility.yul\":88:205   */\ntag_16:\n    /* \"#utility.yul\":197:198   */\n  0x00\n    /* \"#utility.yul\":194:195   */\n  dup1\n    /* \"#utility.yul\":187:199   */\n  revert\n    /* \"#utility.yul\":211:328   */\ntag_17:\n    /* \"#utility.yul\":320:321   */\n  0x00\n    /* \"#utility.yul\":317:318   */\n  dup1\n    /* \"#utility.yul\":310:322   */\n  revert\n    /* \"#utility.yul\":334:451   */\ntag_18:\n    /* \"#utility.yul\":443:444   */\n  0x00\n    /* \"#utility.yul\":440:441   */\n  dup1\n    /* \"#utility.yul\":433:445   */\n  revert\n    /* \"#utility.yul\":457:559   */\ntag_19:\n    /* \"#utility.yul\":498:504   */\n  0x00\n    /* \"#utility.yul\":549:551   */\n  0x1f\n    /* \"#utility.yul\":545:552   */\n  not\n    /* \"#utility.yul\":540:542   */\n  0x1f\n    /* \"#utility.yul\":533:538   */\n  dup4\n    /* \"#utility.yul\":529:543   */\n  add\n    /* \"#utility.yul\":525:553   */\n  and\n    /* \"#utility.yul\":515:553   */\n  swap1\n  pop\n    /* \"#utility.yul\":457:559   */\n  swap2\n  swap1\n  pop\n  jump\t// out\n    /* \"#utility.yul\":565:745   */\ntag_20:\n    /* \"#utility.yul\":613:690   */\n  0x4e487b7100000000000000000000000000000000000000000000000000000000\n    /* \"#utility.yul\":610:611   */\n  0x00\n    /* \"#utility.yul\":603:691   */\n  mstore\n    /* \"#utility.yul\":710:714   */\n  0x41\n    /* \"#utility.yul\":707:708   */\n  0x04\n    /* \"#utility.yul\":700:715   */\n  mstore\n    /* \"#utility.yul\":734:738   */\n  0x24\n    /* \"#utility.yul\":731:732   */\n  0x00\n    /* \"#utility.yul\":724:739   */\n  revert\n    /* \"#utility.yul\":751:1032   */\ntag_21:\n    /* \"#utility.yul\":834:861   */\n  tag_39\n    /* \"#utility.yul\":856:860   */\n  dup3\n    /* \"#utility.yul\":834:861   */\n  tag_19\n  jump\t// in\ntag_39:\n    /* \"#utility.yul\":826:832   */\n  dup2\n    /* \"#utility.yul\":822:862   */\n  add\n    /* \"#utility.yul\":964:970   */\n  dup2\n    /* \"#utility.yul\":952:962   */\n  dup2\n    /* \"#utility.yul\":949:971   */\n  lt\n    /* \"#utility.yul\":928:946   */\n  0xffffffffffffffff\n    /* \"#utility.yul\":916:926   */\n  dup3\n    /* \"#utility.yul\":913:947   */\n  gt\n    /* \"#utility.yul\":910:972   */\n  or\n    /* \"#utility.yul\":907:995   */\n  iszero\n  tag_40\n  jumpi\n    /* \"#utility.yul\":975:993   */\n  tag_41\n  tag_20\n  jump\t// in\ntag_41:\n    /* \"#utility.yul\":907:995   */\ntag_40:\n    /* \"#utility.yul\":1015:1025   */\n  dup1\n    /* \"#utility.yul\":1011:1013   */\n  0x40\n    /* \"#utility.yul\":1004:1026   */\n  mstore\n    /* \"#utility.yul\":794:1032   */\n  pop\n    /* \"#utility.yul\":751:1032   */\n  pop\n  pop\n  jump\t// out\n    /* \"#utility.yul\":1038:1167   */\ntag_22:\n    /* \"#utility.yul\":1072:1078   */\n  0x00\n    /* \"#utility.yul\":1099:1119   */\n  tag_43\n  tag_15\n  jump\t// in\ntag_43:\n    /* \"#utility.yul\":1089:1119   */\n  swap1\n  pop\n    /* \"#utility.yul\":1128:1161   */\n  tag_44\n    /* \"#utility.yul\":1156:1160   */\n  dup3\n    /* \"#utility.yul\":1148:1154   */\n  dup3\n    /* \"#utility.yul\":1128:1161   */\n  tag_21\n  jump\t// in\ntag_44:\n    /* \"#utility.yul\":1038:1167   */\n  swap2\n  swap1\n  pop\n  jump\t// out\n    /* \"#utility.yul\":1173:1484   */\ntag_23:\n    /* \"#utility.yul\":1250:1254   */\n  0x00\n    /* \"#utility.yul\":1340:1358   */\n  0xffffffffffffffff\n    /* \"#utility.yul\":1332:1338   */\n  dup3\n    /* \"#utility.yul\":1329:1359   */\n  gt\n    /* \"#utility.yul\":1326:1382   */\n  iszero\n  tag_46\n  jumpi\n    /* \"#utility.yul\":1362:1380   */\n  tag_47\n  tag_20\n  jump\t// in\ntag_47:\n    /* \"#utility.yul\":1326:1382   */\ntag_46:\n    /* \"#utility.yul\":1412:1416   */\n  0x20\n    /* \"#utility.yul\":1404:1410   */\n  dup3\n    /* \"#utility.yul\":1400:1417   */\n  mul\n    /* \"#utility.yul\":1392:1417   */\n  swap1\n  pop\n    /* \"#utility.yul\":1472:1476   */\n  0x20\n    /* \"#utility.yul\":1466:1470   */\n  dup2\n    /* \"#utility.yul\":1462:1477   */\n  add\n    /* \"#utility.yul\":1454:1477   */\n  swap1\n  pop\n    /* \"#utility.yul\":1173:1484   */\n  swap2\n  swap1\n  pop\n  jump\t// out\n    /* \"#utility.yul\":1490:1607   */\ntag_24:\n    /* \"#utility.yul\":1599:1600   */\n  0x00\n    /* \"#utility.yul\":1596:1597   */\n  dup1\n    /* \"#utility.yul\":1589:1601   */\n  revert\n    /* \"#utility.yul\":1613:1739   */\ntag_25:\n    /* \"#utility.yul\":1650:1657   */\n  0x00\n    /* \"#utility.yul\":1690:1732   */\n  0xffffffffffffffffffffffffffffffffffffffff\n    /* \"#utility.yul\":1683:1688   */\n  dup3\n    /* \"#utility.yul\":1679:1733   */\n  and\n    /* \"#utility.yul\":1668:1733   */\n  swap1\n  pop\n    /* \"#utility.yul\":1613:1739   */\n  swap2\n  swap1\n  pop\n  jump\t// out\n    /* \"#utility.yul\":1745:1841   */\ntag_26:\n    /* \"#utility.yul\":1782:1789   */\n  0x00\n    /* \"#utility.yul\":1811:1835   */\n  tag_51\n    /* \"#utility.yul\":1829:1834   */\n  dup3\n    /* \"#utility.yul\":1811:1835   */\n  tag_25\n  jump\t// in\ntag_51:\n    /* \"#utility.yul\":1800:1835   */\n  swap1\n  pop\n    /* \"#utility.yul\":1745:1841   */\n  swap2\n  swap1\n  pop\n  jump\t// out\n    /* \"#utility.yul\":1847:1969   */\ntag_27:\n    /* \"#utility.yul\":1920:1944   */\n  tag_53\n    /* \"#utility.yul\":1938:1943   */\n  dup2\n    /* \"#utility.yul\":1920:1944   */\n  tag_26\n  jump\t// in\ntag_53:\n    /* \"#utility.yul\":1913:1918   */\n  dup2\n    /* \"#utility.yul\":1910:1945   */\n  eq\n    /* \"#utility.yul\":1900:1963   */\n  tag_54\n  jumpi\n    /* \"#utility.yul\":1959:1960   */\n  0x00\n    /* \"#utility.yul\":1956:1957   */\n  dup1\n    /* \"#utility.yul\":1949:1961   */\n  revert\n    /* \"#utility.yul\":1900:1963   */\ntag_54:\n    /* \"#utility.yul\":1847:1969   */\n  pop\n  jump\t// out\n    /* \"#utility.yul\":1975:2118   */\ntag_28:\n    /* \"#utility.yul\":2032:2037   */\n  0x00\n    /* \"#utility.yul\":2063:2069   */\n  dup2\n    /* \"#utility.yul\":2057:2070   */\n  mload\n    /* \"#utility.yul\":2048:2070   */\n  swap1\n  pop\n    /* \"#utility.yul\":2079:2112   */\n  tag_56\n    /* \"#utility.yul\":2106:2111   */\n  dup2\n    /* \"#utility.yul\":2079:2112   */\n  tag_27\n  jump\t// in\ntag_56:\n    /* \"#utility.yul\":1975:2118   */\n  swap3\n  swap2\n  pop\n  pop\n  jump\t// out\n    /* \"#utility.yul\":2141:2873   */\ntag_29:\n    /* \"#utility.yul\":2248:2253   */\n  0x00\n    /* \"#utility.yul\":2273:2354   */\n  tag_58\n    /* \"#utility.yul\":2289:2353   */\n  tag_59\n    /* \"#utility.yul\":2346:2352   */\n  dup5\n    /* \"#utility.yul\":2289:2353   */\n  tag_23\n  jump\t// in\ntag_59:\n    /* \"#utility.yul\":2273:2354   */\n  tag_22\n  jump\t// in\ntag_58:\n    /* \"#utility.yul\":2264:2354   */\n  swap1\n  pop\n    /* \"#utility.yul\":2374:2379   */\n  dup1\n    /* \"#utility.yul\":2403:2409   */\n  dup4\n    /* \"#utility.yul\":2396:2401   */\n  dup3\n    /* \"#utility.yul\":2389:2410   */\n  mstore\n    /* \"#utility.yul\":2437:2441   */\n  0x20\n    /* \"#utility.yul\":2430:2435   */\n  dup3\n    /* \"#utility.yul\":2426:2442   */\n  add\n    /* \"#utility.yul\":2419:2442   */\n  swap1\n  pop\n    /* \"#utility.yul\":2490:2494   */\n  0x20\n    /* \"#utility.yul\":2482:2488   */\n  dup5\n    /* \"#utility.yul\":2478:2495   */\n  mul\n    /* \"#utility.yul\":2470:2476   */\n  dup4\n    /* \"#utility.yul\":2466:2496   */\n  add\n    /* \"#utility.yul\":2519:2522   */\n  dup6\n    /* \"#utility.yul\":2511:2517   */\n  dup2\n    /* \"#utility.yul\":2508:2523   */\n  gt\n    /* \"#utility.yul\":2505:2627   */\n  iszero\n  tag_60\n  jumpi\n    /* \"#utility.yul\":2538:2617   */\n  tag_61\n  tag_24\n  jump\t// in\ntag_61:\n    /* \"#utility.yul\":2505:2627   */\ntag_60:\n    /* \"#utility.yul\":2653:2659   */\n  dup4\n    /* \"#utility.yul\":2636:2867   */\ntag_62:\n    /* \"#utility.yul\":2670:2676   */\n  dup2\n    /* \"#utility.yul\":2665:2668   */\n  dup2\n    /* \"#utility.yul\":2662:2677   */\n  lt\n    /* \"#utility.yul\":2636:2867   */\n  iszero\n  tag_64\n  jumpi\n    /* \"#utility.yul\":2745:2748   */\n  dup1\n    /* \"#utility.yul\":2774:2822   */\n  tag_65\n    /* \"#utility.yul\":2818:2821   */\n  dup9\n    /* \"#utility.yul\":2806:2816   */\n  dup3\n    /* \"#utility.yul\":2774:2822   */\n  tag_28\n  jump\t// in\ntag_65:\n    /* \"#utility.yul\":2769:2772   */\n  dup5\n    /* \"#utility.yul\":2762:2823   */\n  mstore\n    /* \"#utility.yul\":2852:2856   */\n  0x20\n    /* \"#utility.yul\":2847:2850   */\n  dup5\n    /* \"#utility.yul\":2843:2857   */\n  add\n    /* \"#utility.yul\":2836:2857   */\n  swap4\n  pop\n    /* \"#utility.yul\":2712:2867   */\n  pop\n    /* \"#utility.yul\":2696:2700   */\n  0x20\n    /* \"#utility.yul\":2691:2694   */\n  dup2\n    /* \"#utility.yul\":2687:2701   */\n  add\n    /* \"#utility.yul\":2680:2701   */\n  swap1\n  pop\n    /* \"#utility.yul\":2636:2867   */\n  jump(tag_62)\ntag_64:\n    /* \"#utility.yul\":2640:2661   */\n  pop\n    /* \"#utility.yul\":2254:2873   */\n  pop\n  pop\n    /* \"#utility.yul\":2141:2873   */\n  swap4\n  swap3\n  pop\n  pop\n  pop\n  jump\t// out\n    /* \"#utility.yul\":2896:3281   */\ntag_30:\n    /* \"#utility.yul\":2978:2983   */\n  0x00\n    /* \"#utility.yul\":3027:3030   */\n  dup3\n    /* \"#utility.yul\":3020:3024   */\n  0x1f\n    /* \"#utility.yul\":3012:3018   */\n  dup4\n    /* \"#utility.yul\":3008:3025   */\n  add\n    /* \"#utility.yul\":3004:3031   */\n  slt\n    /* \"#utility.yul\":2994:3116   */\n  tag_67\n  jumpi\n    /* \"#utility.yul\":3035:3114   */\n  tag_68\n  tag_18\n  jump\t// in\ntag_68:\n    /* \"#utility.yul\":2994:3116   */\ntag_67:\n    /* \"#utility.yul\":3145:3151   */\n  dup2\n    /* \"#utility.yul\":3139:3152   */\n  mload\n    /* \"#utility.yul\":3170:3275   */\n  tag_69\n    /* \"#utility.yul\":3271:3274   */\n  dup5\n    /* \"#utility.yul\":3263:3269   */\n  dup3\n    /* \"#utility.yul\":3256:3260   */\n  0x20\n    /* \"#utility.yul\":3248:3254   */\n  dup7\n    /* \"#utility.yul\":3244:3261   */\n  add\n    /* \"#utility.yul\":3170:3275   */\n  tag_29\n  jump\t// in\ntag_69:\n    /* \"#utility.yul\":3161:3275   */\n  swap2\n  pop\n    /* \"#utility.yul\":2984:3281   */\n  pop\n    /* \"#utility.yul\":2896:3281   */\n  swap3\n  swap2\n  pop\n  pop\n  jump\t// out\n    /* \"#utility.yul\":3287:3841   */\ntag_3:\n    /* \"#utility.yul\":3382:3388   */\n  0x00\n    /* \"#utility.yul\":3431:3433   */\n  0x20\n    /* \"#utility.yul\":3419:3428   */\n  dup3\n    /* \"#utility.yul\":3410:3417   */\n  dup5\n    /* \"#utility.yul\":3406:3429   */\n  sub\n    /* \"#utility.yul\":3402:3434   */\n  slt\n    /* \"#utility.yul\":3399:3518   */\n  iszero\n  tag_71\n  jumpi\n    /* \"#utility.yul\":3437:3516   */\n  tag_72\n  tag_16\n  jump\t// in\ntag_72:\n    /* \"#utility.yul\":3399:3518   */\ntag_71:\n    /* \"#utility.yul\":3578:3579   */\n  0x00\n    /* \"#utility.yul\":3567:3576   */\n  dup3\n    /* \"#utility.yul\":3563:3580   */\n  add\n    /* \"#utility.yul\":3557:3581   */\n  mload\n    /* \"#utility.yul\":3608:3626   */\n  0xffffffffffffffff\n    /* \"#utility.yul\":3600:3606   */\n  dup2\n    /* \"#utility.yul\":3597:3627   */\n  gt\n    /* \"#utility.yul\":3594:3711   */\n  iszero\n  tag_73\n  jumpi\n    /* \"#utility.yul\":3630:3709   */\n  tag_74\n  tag_17\n  jump\t// in\ntag_74:\n    /* \"#utility.yul\":3594:3711   */\ntag_73:\n    /* \"#utility.yul\":3735:3824   */\n  tag_75\n    /* \"#utility.yul\":3816:3823   */\n  dup5\n    /* \"#utility.yul\":3807:3813   */\n  dup3\n    /* \"#utility.yul\":3796:3805   */\n  dup6\n    /* \"#utility.yul\":3792:3814   */\n  add\n    /* \"#utility.yul\":3735:3824   */\n  tag_30\n  jump\t// in\ntag_75:\n    /* \"#utility.yul\":3725:3824   */\n  swap2\n  pop\n    /* \"#utility.yul\":3528:3834   */\n  pop\n    /* \"#utility.yul\":3287:3841   */\n  swap3\n  swap2\n  pop\n  pop\n  jump\t// out\n    /* \"#utility.yul\":3847:4027   */\ntag_11:\n    /* \"#utility.yul\":3895:3972   */\n  0x4e487b7100000000000000000000000000000000000000000000000000000000\n    /* \"#utility.yul\":3892:3893   */\n  0x00\n    /* \"#utility.yul\":3885:3973   */\n  mstore\n    /* \"#utility.yul\":3992:3996   */\n  0x32\n    /* \"#utility.yul\":3989:3990   */\n  0x04\n    /* \"#utility.yul\":3982:3997   */\n  mstore\n    /* \"#utility.yul\":4016:4020   */\n  0x24\n    /* \"#utility.yul\":4013:4014   */\n  0x00\n    /* \"#utility.yul\":4006:4021   */\n  revert\n    /* \"Vote.sol\":125:2318  contract Vote {... */\ntag_14:\n  dataSize(sub_0)\n  dup1\n  dataOffset(sub_0)\n  0x00\n  codecopy\n  0x00\n  return\nstop\n\nsub_0: assembly {\n        /* \"Vote.sol\":125:2318  contract Vote {... */\n      mstore(0x40, 0x80)\n      callvalue\n      dup1\n      iszero\n      tag_1\n      jumpi\n      0x00\n      dup1\n      revert\n    tag_1:\n      pop\n      jumpi(tag_2, lt(calldatasize, 0x04))\n      shr(0xe0, calldataload(0x00))\n      dup1\n      0x785ba4de\n      gt\n      tag_13\n      jumpi\n      dup1\n      0x785ba4de\n      eq\n      tag_8\n      jumpi\n      dup1\n      0x8778b27d\n      eq\n      tag_9\n      jumpi\n      dup1\n      0x9b19251a\n      eq\n      tag_10\n      jumpi\n      dup1\n      0xb3f98adc\n      eq\n      tag_11\n      jumpi\n      dup1\n      0xc1b43357\n      eq\n      tag_12\n      jumpi\n      jump(tag_2)\n    tag_13:\n      dup1\n      0x09eef43e\n      eq\n      tag_3\n      jumpi\n      dup1\n      0x38743904\n      eq\n      tag_4\n      jumpi\n      dup1\n      0x3dd079c0\n      eq\n      tag_5\n      jumpi\n      dup1\n      0x5f5300ff\n      eq\n      tag_6\n      jumpi\n      dup1\n      0x72b4ca47\n      eq\n      tag_7\n      jumpi\n    tag_2:\n      0x00\n      dup1\n      revert\n        /* \"Vote.sol\":258:298  mapping(address => bool) public hasVoted */\n    tag_3:\n      tag_14\n      0x04\n      dup1\n      calldatasize\n      sub\n      dup2\n      add\n      swap1\n      tag_15\n      swap2\n      swap1\n      tag_16\n      jump\t// in\n    tag_15:\n      tag_17\n      jump\t// in\n    tag_14:\n      mload(0x40)\n      tag_18\n      swap2\n      swap1\n      tag_19\n      jump\t// in\n    tag_18:\n      mload(0x40)\n      dup1\n      swap2\n      sub\n      swap1\n      return\n        /* \"Vote.sol\":179:203  address public moderator */\n    tag_4:\n      tag_20\n      tag_21\n      jump\t// in\n    tag_20:\n      mload(0x40)\n      tag_22\n      swap2\n      swap1\n      tag_23\n      jump\t// in\n    tag_22:\n      mload(0x40)\n      dup1\n      swap2\n      sub\n      swap1\n      return\n        /* \"Vote.sol\":1947:2158  function hasVotingEnded() external view returns (bool) {... */\n    tag_5:\n      tag_24\n      tag_25\n      jump\t// in\n    tag_24:\n      mload(0x40)\n      tag_26\n      swap2\n      swap1\n      tag_19\n      jump\t// in\n    tag_26:\n      mload(0x40)\n      dup1\n      swap2\n      sub\n      swap1\n      return\n        /* \"Vote.sol\":350:376  uint256 public totalVoters */\n    tag_6:\n      tag_27\n      tag_28\n      jump\t// in\n    tag_27:\n      mload(0x40)\n      tag_29\n      swap2\n      swap1\n      tag_30\n      jump\t// in\n    tag_29:\n      mload(0x40)\n      dup1\n      swap2\n      sub\n      swap1\n      return\n        /* \"Vote.sol\":1783:1935  function getCurrentVotes() external view onlyMod returns (uint256[4] memory) {... */\n    tag_7:\n      tag_31\n      tag_32\n      jump\t// in\n    tag_31:\n      mload(0x40)\n      tag_33\n      swap2\n      swap1\n      tag_34\n      jump\t// in\n    tag_33:\n      mload(0x40)\n      dup1\n      swap2\n      sub\n      swap1\n      return\n        /* \"Vote.sol\":2166:2313  function getFinalResults() external view votingEnded returns (uint256[4] memory) {... */\n    tag_8:\n      tag_35\n      tag_36\n      jump\t// in\n    tag_35:\n      mload(0x40)\n      tag_37\n      swap2\n      swap1\n      tag_34\n      jump\t// in\n    tag_37:\n      mload(0x40)\n      dup1\n      swap2\n      sub\n      swap1\n      return\n        /* \"Vote.sol\":383:408  uint256 public votesCount */\n    tag_9:\n      tag_38\n      tag_39\n      jump\t// in\n    tag_38:\n      mload(0x40)\n      tag_40\n      swap2\n      swap1\n      tag_30\n      jump\t// in\n    tag_40:\n      mload(0x40)\n      dup1\n      swap2\n      sub\n      swap1\n      return\n        /* \"Vote.sol\":210:251  mapping(address => bool) public whitelist */\n    tag_10:\n      tag_41\n      0x04\n      dup1\n      calldatasize\n      sub\n      dup2\n      add\n      swap1\n      tag_42\n      swap2\n      swap1\n      tag_16\n      jump\t// in\n    tag_42:\n      tag_43\n      jump\t// in\n    tag_41:\n      mload(0x40)\n      tag_44\n      swap2\n      swap1\n      tag_19\n      jump\t// in\n    tag_44:\n      mload(0x40)\n      dup1\n      swap2\n      sub\n      swap1\n      return\n        /* \"Vote.sol\":1514:1771  function vote(Candidates _candidate) external onlyWhitelisted notVoted {... */\n    tag_11:\n      tag_45\n      0x04\n      dup1\n      calldatasize\n      sub\n      dup2\n      add\n      swap1\n      tag_46\n      swap2\n      swap1\n      tag_47\n      jump\t// in\n    tag_46:\n      tag_48\n      jump\t// in\n    tag_45:\n      stop\n        /* \"Vote.sol\":305:343  mapping(uint8 => uint256) public votes */\n    tag_12:\n      tag_49\n      0x04\n      dup1\n      calldatasize\n      sub\n      dup2\n      add\n      swap1\n      tag_50\n      swap2\n      swap1\n      tag_51\n      jump\t// in\n    tag_50:\n      tag_52\n      jump\t// in\n    tag_49:\n      mload(0x40)\n      tag_53\n      swap2\n      swap1\n      tag_30\n      jump\t// in\n    tag_53:\n      mload(0x40)\n      dup1\n      swap2\n      sub\n      swap1\n      return\n        /* \"Vote.sol\":258:298  mapping(address => bool) public hasVoted */\n    tag_17:\n      mstore(0x20, 0x02)\n      dup1\n      0x00\n      mstore\n      keccak256(0x00, 0x40)\n      0x00\n      swap2\n      pop\n      sload\n      swap1\n      0x0100\n      exp\n      swap1\n      div\n      0xff\n      and\n      dup2\n      jump\t// out\n        /* \"Vote.sol\":179:203  address public moderator */\n    tag_21:\n      0x00\n      dup1\n      sload\n      swap1\n      0x0100\n      exp\n      swap1\n      div\n      0xffffffffffffffffffffffffffffffffffffffff\n      and\n      dup2\n      jump\t// out\n        /* \"Vote.sol\":1947:2158  function hasVotingEnded() external view returns (bool) {... */\n    tag_25:\n        /* \"Vote.sol\":1996:2000  bool */\n      0x00\n        /* \"Vote.sol\":2039:2050  totalVoters */\n      sload(0x04)\n        /* \"Vote.sol\":2025:2035  votesCount */\n      sload(0x05)\n        /* \"Vote.sol\":2025:2050  votesCount == totalVoters */\n      sub\n        /* \"Vote.sol\":2022:2142  if(votesCount == totalVoters){... */\n      tag_55\n      jumpi\n        /* \"Vote.sol\":2073:2077  true */\n      0x01\n        /* \"Vote.sol\":2066:2077  return true */\n      swap1\n      pop\n      jump(tag_54)\n        /* \"Vote.sol\":2022:2142  if(votesCount == totalVoters){... */\n    tag_55:\n        /* \"Vote.sol\":2125:2130  false */\n      0x00\n        /* \"Vote.sol\":2118:2130  return false */\n      swap1\n      pop\n        /* \"Vote.sol\":1947:2158  function hasVotingEnded() external view returns (bool) {... */\n    tag_54:\n      swap1\n      jump\t// out\n        /* \"Vote.sol\":350:376  uint256 public totalVoters */\n    tag_28:\n      sload(0x04)\n      dup2\n      jump\t// out\n        /* \"Vote.sol\":1783:1935  function getCurrentVotes() external view onlyMod returns (uint256[4] memory) {... */\n    tag_32:\n        /* \"Vote.sol\":1841:1858  uint256[4] memory */\n      tag_57\n      tag_58\n      jump\t// in\n    tag_57:\n        /* \"Vote.sol\":906:915  moderator */\n      0x00\n      dup1\n      sload\n      swap1\n      0x0100\n      exp\n      swap1\n      div\n      0xffffffffffffffffffffffffffffffffffffffff\n      and\n        /* \"Vote.sol\":892:915  msg.sender != moderator */\n      0xffffffffffffffffffffffffffffffffffffffff\n      and\n        /* \"Vote.sol\":892:902  msg.sender */\n      caller\n        /* \"Vote.sol\":892:915  msg.sender != moderator */\n      0xffffffffffffffffffffffffffffffffffffffff\n      and\n      eq\n        /* \"Vote.sol\":889:964  if(msg.sender != moderator) revert(\"Only moderator can call this function\") */\n      tag_60\n      jumpi\n        /* \"Vote.sol\":917:964  revert(\"Only moderator can call this function\") */\n      mload(0x40)\n      0x08c379a000000000000000000000000000000000000000000000000000000000\n      dup2\n      mstore\n      0x04\n      add\n      tag_61\n      swap1\n      tag_62\n      jump\t// in\n    tag_61:\n      mload(0x40)\n      dup1\n      swap2\n      sub\n      swap1\n      revert\n        /* \"Vote.sol\":889:964  if(msg.sender != moderator) revert(\"Only moderator can call this function\") */\n    tag_60:\n        /* \"Vote.sol\":1880:1927  return [votes[0], votes[1], votes[2], votes[3]] */\n      mload(0x40)\n      dup1\n      0x80\n      add\n      0x40\n      mstore\n      dup1\n        /* \"Vote.sol\":1888:1893  votes */\n      0x03\n        /* \"Vote.sol\":1888:1896  votes[0] */\n      0x00\n        /* \"Vote.sol\":1894:1895  0 */\n      dup1\n        /* \"Vote.sol\":1888:1896  votes[0] */\n      0xff\n      and\n      dup2\n      mstore\n      0x20\n      add\n      swap1\n      dup2\n      mstore\n      0x20\n      add\n      0x00\n      keccak256\n      sload\n        /* \"Vote.sol\":1880:1927  return [votes[0], votes[1], votes[2], votes[3]] */\n      dup2\n      mstore\n      0x20\n      add\n        /* \"Vote.sol\":1898:1903  votes */\n      0x03\n        /* \"Vote.sol\":1898:1906  votes[1] */\n      0x00\n        /* \"Vote.sol\":1904:1905  1 */\n      0x01\n        /* \"Vote.sol\":1898:1906  votes[1] */\n      0xff\n      and\n      dup2\n      mstore\n      0x20\n      add\n      swap1\n      dup2\n      mstore\n      0x20\n      add\n      0x00\n      keccak256\n      sload\n        /* \"Vote.sol\":1880:1927  return [votes[0], votes[1], votes[2], votes[3]] */\n      dup2\n      mstore\n      0x20\n      add\n        /* \"Vote.sol\":1908:1913  votes */\n      0x03\n        /* \"Vote.sol\":1908:1916  votes[2] */\n      0x00\n        /* \"Vote.sol\":1914:1915  2 */\n      0x02\n        /* \"Vote.sol\":1908:1916  votes[2] */\n      0xff\n      and\n      dup2\n      mstore\n      0x20\n      add\n      swap1\n      dup2\n      mstore\n      0x20\n      add\n      0x00\n      keccak256\n      sload\n        /* \"Vote.sol\":1880:1927  return [votes[0], votes[1], votes[2], votes[3]] */\n      dup2\n      mstore\n      0x20\n      add\n        /* \"Vote.sol\":1918:1923  votes */\n      0x03\n        /* \"Vote.sol\":1918:1926  votes[3] */\n      0x00\n        /* \"Vote.sol\":1924:1925  3 */\n      0x03\n        /* \"Vote.sol\":1918:1926  votes[3] */\n      0xff\n      and\n      dup2\n      mstore\n      0x20\n      add\n      swap1\n      dup2\n      mstore\n      0x20\n      add\n      0x00\n      keccak256\n      sload\n        /* \"Vote.sol\":1880:1927  return [votes[0], votes[1], votes[2], votes[3]] */\n      dup2\n      mstore\n      pop\n      swap1\n      pop\n        /* \"Vote.sol\":1783:1935  function getCurrentVotes() external view onlyMod returns (uint256[4] memory) {... */\n      swap1\n      jump\t// out\n        /* \"Vote.sol\":2166:2313  function getFinalResults() external view votingEnded returns (uint256[4] memory) {... */\n    tag_36:\n        /* \"Vote.sol\":2228:2245  uint256[4] memory */\n      tag_64\n      tag_58\n      jump\t// in\n    tag_64:\n        /* \"Vote.sol\":1284:1295  totalVoters */\n      sload(0x04)\n        /* \"Vote.sol\":1271:1281  votesCount */\n      sload(0x05)\n        /* \"Vote.sol\":1271:1295  votesCount < totalVoters */\n      lt\n        /* \"Vote.sol\":1268:1331  if(votesCount < totalVoters) revert(\"Voting has not ended yet\") */\n      iszero\n      tag_66\n      jumpi\n        /* \"Vote.sol\":1297:1331  revert(\"Voting has not ended yet\") */\n      mload(0x40)\n      0x08c379a000000000000000000000000000000000000000000000000000000000\n      dup2\n      mstore\n      0x04\n      add\n      tag_67\n      swap1\n      tag_68\n      jump\t// in\n    tag_67:\n      mload(0x40)\n      dup1\n      swap2\n      sub\n      swap1\n      revert\n        /* \"Vote.sol\":1268:1331  if(votesCount < totalVoters) revert(\"Voting has not ended yet\") */\n    tag_66:\n        /* \"Vote.sol\":2258:2305  return [votes[0], votes[1], votes[2], votes[3]] */\n      mload(0x40)\n      dup1\n      0x80\n      add\n      0x40\n      mstore\n      dup1\n        /* \"Vote.sol\":2266:2271  votes */\n      0x03\n        /* \"Vote.sol\":2266:2274  votes[0] */\n      0x00\n        /* \"Vote.sol\":2272:2273  0 */\n      dup1\n        /* \"Vote.sol\":2266:2274  votes[0] */\n      0xff\n      and\n      dup2\n      mstore\n      0x20\n      add\n      swap1\n      dup2\n      mstore\n      0x20\n      add\n      0x00\n      keccak256\n      sload\n        /* \"Vote.sol\":2258:2305  return [votes[0], votes[1], votes[2], votes[3]] */\n      dup2\n      mstore\n      0x20\n      add\n        /* \"Vote.sol\":2276:2281  votes */\n      0x03\n        /* \"Vote.sol\":2276:2284  votes[1] */\n      0x00\n        /* \"Vote.sol\":2282:2283  1 */\n      0x01\n        /* \"Vote.sol\":2276:2284  votes[1] */\n      0xff\n      and\n      dup2\n      mstore\n      0x20\n      add\n      swap1\n      dup2\n      mstore\n      0x20\n      add\n      0x00\n      keccak256\n      sload\n        /* \"Vote.sol\":2258:2305  return [votes[0], votes[1], votes[2], votes[3]] */\n      dup2\n      mstore\n      0x20\n      add\n        /* \"Vote.sol\":2286:2291  votes */\n      0x03\n        /* \"Vote.sol\":2286:2294  votes[2] */\n      0x00\n        /* \"Vote.sol\":2292:2293  2 */\n      0x02\n        /* \"Vote.sol\":2286:2294  votes[2] */\n      0xff\n      and\n      dup2\n      mstore\n      0x20\n      add\n      swap1\n      dup2\n      mstore\n      0x20\n      add\n      0x00\n      keccak256\n      sload\n        /* \"Vote.sol\":2258:2305  return [votes[0], votes[1], votes[2], votes[3]] */\n      dup2\n      mstore\n      0x20\n      add\n        /* \"Vote.sol\":2296:2301  votes */\n      0x03\n        /* \"Vote.sol\":2296:2304  votes[3] */\n      0x00\n        /* \"Vote.sol\":2302:2303  3 */\n      0x03\n        /* \"Vote.sol\":2296:2304  votes[3] */\n      0xff\n      and\n      dup2\n      mstore\n      0x20\n      add\n      swap1\n      dup2\n      mstore\n      0x20\n      add\n      0x00\n      keccak256\n      sload\n        /* \"Vote.sol\":2258:2305  return [votes[0], votes[1], votes[2], votes[3]] */\n      dup2\n      mstore\n      pop\n      swap1\n      pop\n        /* \"Vote.sol\":2166:2313  function getFinalResults() external view votingEnded returns (uint256[4] memory) {... */\n      swap1\n      jump\t// out\n        /* \"Vote.sol\":383:408  uint256 public votesCount */\n    tag_39:\n      sload(0x05)\n      dup2\n      jump\t// out\n        /* \"Vote.sol\":210:251  mapping(address => bool) public whitelist */\n    tag_43:\n      mstore(0x20, 0x01)\n      dup1\n      0x00\n      mstore\n      keccak256(0x00, 0x40)\n      0x00\n      swap2\n      pop\n      sload\n      swap1\n      0x0100\n      exp\n      swap1\n      div\n      0xff\n      and\n      dup2\n      jump\t// out\n        /* \"Vote.sol\":1514:1771  function vote(Candidates _candidate) external onlyWhitelisted notVoted {... */\n    tag_48:\n        /* \"Vote.sol\":1033:1042  whitelist */\n      0x01\n        /* \"Vote.sol\":1033:1054  whitelist[msg.sender] */\n      0x00\n        /* \"Vote.sol\":1043:1053  msg.sender */\n      caller\n        /* \"Vote.sol\":1033:1054  whitelist[msg.sender] */\n      0xffffffffffffffffffffffffffffffffffffffff\n      and\n      0xffffffffffffffffffffffffffffffffffffffff\n      and\n      dup2\n      mstore\n      0x20\n      add\n      swap1\n      dup2\n      mstore\n      0x20\n      add\n      0x00\n      keccak256\n      0x00\n      swap1\n      sload\n      swap1\n      0x0100\n      exp\n      swap1\n      div\n      0xff\n      and\n        /* \"Vote.sol\":1029:1091  if(!whitelist[msg.sender]) revert(\"Not included in whitelist\") */\n      tag_71\n      jumpi\n        /* \"Vote.sol\":1056:1091  revert(\"Not included in whitelist\") */\n      mload(0x40)\n      0x08c379a000000000000000000000000000000000000000000000000000000000\n      dup2\n      mstore\n      0x04\n      add\n      tag_72\n      swap1\n      tag_73\n      jump\t// in\n    tag_72:\n      mload(0x40)\n      dup1\n      swap2\n      sub\n      swap1\n      revert\n        /* \"Vote.sol\":1029:1091  if(!whitelist[msg.sender]) revert(\"Not included in whitelist\") */\n    tag_71:\n        /* \"Vote.sol\":1152:1160  hasVoted */\n      0x02\n        /* \"Vote.sol\":1152:1172  hasVoted[msg.sender] */\n      0x00\n        /* \"Vote.sol\":1161:1171  msg.sender */\n      caller\n        /* \"Vote.sol\":1152:1172  hasVoted[msg.sender] */\n      0xffffffffffffffffffffffffffffffffffffffff\n      and\n      0xffffffffffffffffffffffffffffffffffffffff\n      and\n      dup2\n      mstore\n      0x20\n      add\n      swap1\n      dup2\n      mstore\n      0x20\n      add\n      0x00\n      keccak256\n      0x00\n      swap1\n      sload\n      swap1\n      0x0100\n      exp\n      swap1\n      div\n      0xff\n      and\n        /* \"Vote.sol\":1149:1206  if(hasVoted[msg.sender]) revert(\"You have already voted\") */\n      iszero\n      tag_75\n      jumpi\n        /* \"Vote.sol\":1174:1206  revert(\"You have already voted\") */\n      mload(0x40)\n      0x08c379a000000000000000000000000000000000000000000000000000000000\n      dup2\n      mstore\n      0x04\n      add\n      tag_76\n      swap1\n      tag_77\n      jump\t// in\n    tag_76:\n      mload(0x40)\n      dup1\n      swap2\n      sub\n      swap1\n      revert\n        /* \"Vote.sol\":1149:1206  if(hasVoted[msg.sender]) revert(\"You have already voted\") */\n    tag_75:\n        /* \"Vote.sol\":1600:1605  votes */\n      0x03\n        /* \"Vote.sol\":1600:1624  votes[uint8(_candidate)] */\n      0x00\n        /* \"Vote.sol\":1612:1622  _candidate */\n      dup3\n        /* \"Vote.sol\":1606:1623  uint8(_candidate) */\n      0x03\n      dup2\n      gt\n      iszero\n      tag_79\n      jumpi\n      tag_80\n      tag_81\n      jump\t// in\n    tag_80:\n    tag_79:\n        /* \"Vote.sol\":1600:1624  votes[uint8(_candidate)] */\n      0xff\n      and\n      0xff\n      and\n      dup2\n      mstore\n      0x20\n      add\n      swap1\n      dup2\n      mstore\n      0x20\n      add\n      0x00\n      keccak256\n      0x00\n        /* \"Vote.sol\":1600:1626  votes[uint8(_candidate)]++ */\n      dup2\n      sload\n      dup1\n      swap3\n      swap2\n      swap1\n      tag_82\n      swap1\n      tag_83\n      jump\t// in\n    tag_82:\n      swap2\n      swap1\n      pop\n      sstore\n      pop\n        /* \"Vote.sol\":1664:1668  true */\n      0x01\n        /* \"Vote.sol\":1641:1649  hasVoted */\n      0x02\n        /* \"Vote.sol\":1641:1661  hasVoted[msg.sender] */\n      0x00\n        /* \"Vote.sol\":1650:1660  msg.sender */\n      caller\n        /* \"Vote.sol\":1641:1661  hasVoted[msg.sender] */\n      0xffffffffffffffffffffffffffffffffffffffff\n      and\n      0xffffffffffffffffffffffffffffffffffffffff\n      and\n      dup2\n      mstore\n      0x20\n      add\n      swap1\n      dup2\n      mstore\n      0x20\n      add\n      0x00\n      keccak256\n      0x00\n        /* \"Vote.sol\":1641:1668  hasVoted[msg.sender] = true */\n      0x0100\n      exp\n      dup2\n      sload\n      dup2\n      0xff\n      mul\n      not\n      and\n      swap1\n      dup4\n      iszero\n      iszero\n      mul\n      or\n      swap1\n      sstore\n      pop\n        /* \"Vote.sol\":1709:1710  1 */\n      0x01\n        /* \"Vote.sol\":1696:1706  votesCount */\n      sload(0x05)\n        /* \"Vote.sol\":1696:1710  votesCount + 1 */\n      tag_84\n      swap2\n      swap1\n      tag_85\n      jump\t// in\n    tag_84:\n        /* \"Vote.sol\":1683:1693  votesCount */\n      0x05\n        /* \"Vote.sol\":1683:1710  votesCount = votesCount + 1 */\n      dup2\n      swap1\n      sstore\n      pop\n        /* \"Vote.sol\":1736:1746  msg.sender */\n      caller\n        /* \"Vote.sol\":1730:1759  Voted(msg.sender, _candidate) */\n      0xffffffffffffffffffffffffffffffffffffffff\n      and\n      0x14075e33dffdc00c1fcaf75d0f86d667170be57fb566b12b41b499e5fa53b125\n        /* \"Vote.sol\":1748:1758  _candidate */\n      dup3\n        /* \"Vote.sol\":1730:1759  Voted(msg.sender, _candidate) */\n      mload(0x40)\n      tag_86\n      swap2\n      swap1\n      tag_87\n      jump\t// in\n    tag_86:\n      mload(0x40)\n      dup1\n      swap2\n      sub\n      swap1\n      log2\n        /* \"Vote.sol\":1514:1771  function vote(Candidates _candidate) external onlyWhitelisted notVoted {... */\n      pop\n      jump\t// out\n        /* \"Vote.sol\":305:343  mapping(uint8 => uint256) public votes */\n    tag_52:\n      mstore(0x20, 0x03)\n      dup1\n      0x00\n      mstore\n      keccak256(0x00, 0x40)\n      0x00\n      swap2\n      pop\n      swap1\n      pop\n      sload\n      dup2\n      jump\t// out\n    tag_58:\n      mload(0x40)\n      dup1\n      0x80\n      add\n      0x40\n      mstore\n      dup1\n      0x04\n      swap1\n      0x20\n      dup3\n      mul\n      dup1\n      calldatasize\n      dup4\n      calldatacopy\n      dup1\n      dup3\n      add\n      swap2\n      pop\n      pop\n      swap1\n      pop\n      pop\n      swap1\n      jump\t// out\n        /* \"#utility.yul\":88:205   */\n    tag_89:\n        /* \"#utility.yul\":197:198   */\n      0x00\n        /* \"#utility.yul\":194:195   */\n      dup1\n        /* \"#utility.yul\":187:199   */\n      revert\n        /* \"#utility.yul\":334:460   */\n    tag_91:\n        /* \"#utility.yul\":371:378   */\n      0x00\n        /* \"#utility.yul\":411:453   */\n      0xffffffffffffffffffffffffffffffffffffffff\n        /* \"#utility.yul\":404:409   */\n      dup3\n        /* \"#utility.yul\":400:454   */\n      and\n        /* \"#utility.yul\":389:454   */\n      swap1\n      pop\n        /* \"#utility.yul\":334:460   */\n      swap2\n      swap1\n      pop\n      jump\t// out\n        /* \"#utility.yul\":466:562   */\n    tag_92:\n        /* \"#utility.yul\":503:510   */\n      0x00\n        /* \"#utility.yul\":532:556   */\n      tag_132\n        /* \"#utility.yul\":550:555   */\n      dup3\n        /* \"#utility.yul\":532:556   */\n      tag_91\n      jump\t// in\n    tag_132:\n        /* \"#utility.yul\":521:556   */\n      swap1\n      pop\n        /* \"#utility.yul\":466:562   */\n      swap2\n      swap1\n      pop\n      jump\t// out\n        /* \"#utility.yul\":568:690   */\n    tag_93:\n        /* \"#utility.yul\":641:665   */\n      tag_134\n        /* \"#utility.yul\":659:664   */\n      dup2\n        /* \"#utility.yul\":641:665   */\n      tag_92\n      jump\t// in\n    tag_134:\n        /* \"#utility.yul\":634:639   */\n      dup2\n        /* \"#utility.yul\":631:666   */\n      eq\n        /* \"#utility.yul\":621:684   */\n      tag_135\n      jumpi\n        /* \"#utility.yul\":680:681   */\n      0x00\n        /* \"#utility.yul\":677:678   */\n      dup1\n        /* \"#utility.yul\":670:682   */\n      revert\n        /* \"#utility.yul\":621:684   */\n    tag_135:\n        /* \"#utility.yul\":568:690   */\n      pop\n      jump\t// out\n        /* \"#utility.yul\":696:835   */\n    tag_94:\n        /* \"#utility.yul\":742:747   */\n      0x00\n        /* \"#utility.yul\":780:786   */\n      dup2\n        /* \"#utility.yul\":767:787   */\n      calldataload\n        /* \"#utility.yul\":758:787   */\n      swap1\n      pop\n        /* \"#utility.yul\":796:829   */\n      tag_137\n        /* \"#utility.yul\":823:828   */\n      dup2\n        /* \"#utility.yul\":796:829   */\n      tag_93\n      jump\t// in\n    tag_137:\n        /* \"#utility.yul\":696:835   */\n      swap3\n      swap2\n      pop\n      pop\n      jump\t// out\n        /* \"#utility.yul\":841:1170   */\n    tag_16:\n        /* \"#utility.yul\":900:906   */\n      0x00\n        /* \"#utility.yul\":949:951   */\n      0x20\n        /* \"#utility.yul\":937:946   */\n      dup3\n        /* \"#utility.yul\":928:935   */\n      dup5\n        /* \"#utility.yul\":924:947   */\n      sub\n        /* \"#utility.yul\":920:952   */\n      slt\n        /* \"#utility.yul\":917:1036   */\n      iszero\n      tag_139\n      jumpi\n        /* \"#utility.yul\":955:1034   */\n      tag_140\n      tag_89\n      jump\t// in\n    tag_140:\n        /* \"#utility.yul\":917:1036   */\n    tag_139:\n        /* \"#utility.yul\":1075:1076   */\n      0x00\n        /* \"#utility.yul\":1100:1153   */\n      tag_141\n        /* \"#utility.yul\":1145:1152   */\n      dup5\n        /* \"#utility.yul\":1136:1142   */\n      dup3\n        /* \"#utility.yul\":1125:1134   */\n      dup6\n        /* \"#utility.yul\":1121:1143   */\n      add\n        /* \"#utility.yul\":1100:1153   */\n      tag_94\n      jump\t// in\n    tag_141:\n        /* \"#utility.yul\":1090:1153   */\n      swap2\n      pop\n        /* \"#utility.yul\":1046:1163   */\n      pop\n        /* \"#utility.yul\":841:1170   */\n      swap3\n      swap2\n      pop\n      pop\n      jump\t// out\n        /* \"#utility.yul\":1176:1266   */\n    tag_95:\n        /* \"#utility.yul\":1210:1217   */\n      0x00\n        /* \"#utility.yul\":1253:1258   */\n      dup2\n        /* \"#utility.yul\":1246:1259   */\n      iszero\n        /* \"#utility.yul\":1239:1260   */\n      iszero\n        /* \"#utility.yul\":1228:1260   */\n      swap1\n      pop\n        /* \"#utility.yul\":1176:1266   */\n      swap2\n      swap1\n      pop\n      jump\t// out\n        /* \"#utility.yul\":1272:1381   */\n    tag_96:\n        /* \"#utility.yul\":1353:1374   */\n      tag_144\n        /* \"#utility.yul\":1368:1373   */\n      dup2\n        /* \"#utility.yul\":1353:1374   */\n      tag_95\n      jump\t// in\n    tag_144:\n        /* \"#utility.yul\":1348:1351   */\n      dup3\n        /* \"#utility.yul\":1341:1375   */\n      mstore\n        /* \"#utility.yul\":1272:1381   */\n      pop\n      pop\n      jump\t// out\n        /* \"#utility.yul\":1387:1597   */\n    tag_19:\n        /* \"#utility.yul\":1474:1478   */\n      0x00\n        /* \"#utility.yul\":1512:1514   */\n      0x20\n        /* \"#utility.yul\":1501:1510   */\n      dup3\n        /* \"#utility.yul\":1497:1515   */\n      add\n        /* \"#utility.yul\":1489:1515   */\n      swap1\n      pop\n        /* \"#utility.yul\":1525:1590   */\n      tag_146\n        /* \"#utility.yul\":1587:1588   */\n      0x00\n        /* \"#utility.yul\":1576:1585   */\n      dup4\n        /* \"#utility.yul\":1572:1589   */\n      add\n        /* \"#utility.yul\":1563:1569   */\n      dup5\n        /* \"#utility.yul\":1525:1590   */\n      tag_96\n      jump\t// in\n    tag_146:\n        /* \"#utility.yul\":1387:1597   */\n      swap3\n      swap2\n      pop\n      pop\n      jump\t// out\n        /* \"#utility.yul\":1603:1721   */\n    tag_97:\n        /* \"#utility.yul\":1690:1714   */\n      tag_148\n        /* \"#utility.yul\":1708:1713   */\n      dup2\n        /* \"#utility.yul\":1690:1714   */\n      tag_92\n      jump\t// in\n    tag_148:\n        /* \"#utility.yul\":1685:1688   */\n      dup3\n        /* \"#utility.yul\":1678:1715   */\n      mstore\n        /* \"#utility.yul\":1603:1721   */\n      pop\n      pop\n      jump\t// out\n        /* \"#utility.yul\":1727:1949   */\n    tag_23:\n        /* \"#utility.yul\":1820:1824   */\n      0x00\n        /* \"#utility.yul\":1858:1860   */\n      0x20\n        /* \"#utility.yul\":1847:1856   */\n      dup3\n        /* \"#utility.yul\":1843:1861   */\n      add\n        /* \"#utility.yul\":1835:1861   */\n      swap1\n      pop\n        /* \"#utility.yul\":1871:1942   */\n      tag_150\n        /* \"#utility.yul\":1939:1940   */\n      0x00\n        /* \"#utility.yul\":1928:1937   */\n      dup4\n        /* \"#utility.yul\":1924:1941   */\n      add\n        /* \"#utility.yul\":1915:1921   */\n      dup5\n        /* \"#utility.yul\":1871:1942   */\n      tag_97\n      jump\t// in\n    tag_150:\n        /* \"#utility.yul\":1727:1949   */\n      swap3\n      swap2\n      pop\n      pop\n      jump\t// out\n        /* \"#utility.yul\":1955:2032   */\n    tag_98:\n        /* \"#utility.yul\":1992:1999   */\n      0x00\n        /* \"#utility.yul\":2021:2026   */\n      dup2\n        /* \"#utility.yul\":2010:2026   */\n      swap1\n      pop\n        /* \"#utility.yul\":1955:2032   */\n      swap2\n      swap1\n      pop\n      jump\t// out\n        /* \"#utility.yul\":2038:2156   */\n    tag_99:\n        /* \"#utility.yul\":2125:2149   */\n      tag_153\n        /* \"#utility.yul\":2143:2148   */\n      dup2\n        /* \"#utility.yul\":2125:2149   */\n      tag_98\n      jump\t// in\n    tag_153:\n        /* \"#utility.yul\":2120:2123   */\n      dup3\n        /* \"#utility.yul\":2113:2150   */\n      mstore\n        /* \"#utility.yul\":2038:2156   */\n      pop\n      pop\n      jump\t// out\n        /* \"#utility.yul\":2162:2384   */\n    tag_30:\n        /* \"#utility.yul\":2255:2259   */\n      0x00\n        /* \"#utility.yul\":2293:2295   */\n      0x20\n        /* \"#utility.yul\":2282:2291   */\n      dup3\n        /* \"#utility.yul\":2278:2296   */\n      add\n        /* \"#utility.yul\":2270:2296   */\n      swap1\n      pop\n        /* \"#utility.yul\":2306:2377   */\n      tag_155\n        /* \"#utility.yul\":2374:2375   */\n      0x00\n        /* \"#utility.yul\":2363:2372   */\n      dup4\n        /* \"#utility.yul\":2359:2376   */\n      add\n        /* \"#utility.yul\":2350:2356   */\n      dup5\n        /* \"#utility.yul\":2306:2377   */\n      tag_99\n      jump\t// in\n    tag_155:\n        /* \"#utility.yul\":2162:2384   */\n      swap3\n      swap2\n      pop\n      pop\n      jump\t// out\n        /* \"#utility.yul\":2390:2494   */\n    tag_100:\n        /* \"#utility.yul\":2455:2461   */\n      0x00\n        /* \"#utility.yul\":2483:2487   */\n      0x04\n        /* \"#utility.yul\":2473:2487   */\n      swap1\n      pop\n        /* \"#utility.yul\":2390:2494   */\n      swap2\n      swap1\n      pop\n      jump\t// out\n        /* \"#utility.yul\":2500:2643   */\n    tag_101:\n        /* \"#utility.yul\":2597:2608   */\n      0x00\n        /* \"#utility.yul\":2634:2637   */\n      dup2\n        /* \"#utility.yul\":2619:2637   */\n      swap1\n      pop\n        /* \"#utility.yul\":2500:2643   */\n      swap3\n      swap2\n      pop\n      pop\n      jump\t// out\n        /* \"#utility.yul\":2649:2747   */\n    tag_102:\n        /* \"#utility.yul\":2714:2718   */\n      0x00\n        /* \"#utility.yul\":2737:2740   */\n      dup2\n        /* \"#utility.yul\":2729:2740   */\n      swap1\n      pop\n        /* \"#utility.yul\":2649:2747   */\n      swap2\n      swap1\n      pop\n      jump\t// out\n        /* \"#utility.yul\":2753:2861   */\n    tag_103:\n        /* \"#utility.yul\":2830:2854   */\n      tag_160\n        /* \"#utility.yul\":2848:2853   */\n      dup2\n        /* \"#utility.yul\":2830:2854   */\n      tag_98\n      jump\t// in\n    tag_160:\n        /* \"#utility.yul\":2825:2828   */\n      dup3\n        /* \"#utility.yul\":2818:2855   */\n      mstore\n        /* \"#utility.yul\":2753:2861   */\n      pop\n      pop\n      jump\t// out\n        /* \"#utility.yul\":2867:3046   */\n    tag_104:\n        /* \"#utility.yul\":2936:2946   */\n      0x00\n        /* \"#utility.yul\":2957:3003   */\n      tag_162\n        /* \"#utility.yul\":2999:3002   */\n      dup4\n        /* \"#utility.yul\":2991:2997   */\n      dup4\n        /* \"#utility.yul\":2957:3003   */\n      tag_103\n      jump\t// in\n    tag_162:\n        /* \"#utility.yul\":3035:3039   */\n      0x20\n        /* \"#utility.yul\":3030:3033   */\n      dup4\n        /* \"#utility.yul\":3026:3040   */\n      add\n        /* \"#utility.yul\":3012:3040   */\n      swap1\n      pop\n        /* \"#utility.yul\":2867:3046   */\n      swap3\n      swap2\n      pop\n      pop\n      jump\t// out\n        /* \"#utility.yul\":3052:3163   */\n    tag_105:\n        /* \"#utility.yul\":3120:3124   */\n      0x00\n        /* \"#utility.yul\":3152:3156   */\n      0x20\n        /* \"#utility.yul\":3147:3150   */\n      dup3\n        /* \"#utility.yul\":3143:3157   */\n      add\n        /* \"#utility.yul\":3135:3157   */\n      swap1\n      pop\n        /* \"#utility.yul\":3052:3163   */\n      swap2\n      swap1\n      pop\n      jump\t// out\n        /* \"#utility.yul\":3201:3895   */\n    tag_106:\n        /* \"#utility.yul\":3337:3389   */\n      tag_165\n        /* \"#utility.yul\":3383:3388   */\n      dup2\n        /* \"#utility.yul\":3337:3389   */\n      tag_100\n      jump\t// in\n    tag_165:\n        /* \"#utility.yul\":3405:3489   */\n      tag_166\n        /* \"#utility.yul\":3482:3488   */\n      dup2\n        /* \"#utility.yul\":3477:3480   */\n      dup5\n        /* \"#utility.yul\":3405:3489   */\n      tag_101\n      jump\t// in\n    tag_166:\n        /* \"#utility.yul\":3398:3489   */\n      swap3\n      pop\n        /* \"#utility.yul\":3513:3567   */\n      tag_167\n        /* \"#utility.yul\":3561:3566   */\n      dup3\n        /* \"#utility.yul\":3513:3567   */\n      tag_102\n      jump\t// in\n    tag_167:\n        /* \"#utility.yul\":3590:3597   */\n      dup1\n        /* \"#utility.yul\":3621:3622   */\n      0x00\n        /* \"#utility.yul\":3606:3888   */\n    tag_168:\n        /* \"#utility.yul\":3631:3637   */\n      dup4\n        /* \"#utility.yul\":3628:3629   */\n      dup2\n        /* \"#utility.yul\":3625:3638   */\n      lt\n        /* \"#utility.yul\":3606:3888   */\n      iszero\n      tag_170\n      jumpi\n        /* \"#utility.yul\":3707:3713   */\n      dup2\n        /* \"#utility.yul\":3701:3714   */\n      mload\n        /* \"#utility.yul\":3734:3797   */\n      tag_171\n        /* \"#utility.yul\":3793:3796   */\n      dup8\n        /* \"#utility.yul\":3778:3791   */\n      dup3\n        /* \"#utility.yul\":3734:3797   */\n      tag_104\n      jump\t// in\n    tag_171:\n        /* \"#utility.yul\":3727:3797   */\n      swap7\n      pop\n        /* \"#utility.yul\":3820:3878   */\n      tag_172\n        /* \"#utility.yul\":3871:3877   */\n      dup4\n        /* \"#utility.yul\":3820:3878   */\n      tag_105\n      jump\t// in\n    tag_172:\n        /* \"#utility.yul\":3810:3878   */\n      swap3\n      pop\n        /* \"#utility.yul\":3666:3888   */\n      pop\n        /* \"#utility.yul\":3653:3654   */\n      0x01\n        /* \"#utility.yul\":3650:3651   */\n      dup2\n        /* \"#utility.yul\":3646:3655   */\n      add\n        /* \"#utility.yul\":3641:3655   */\n      swap1\n      pop\n        /* \"#utility.yul\":3606:3888   */\n      jump(tag_168)\n    tag_170:\n        /* \"#utility.yul\":3610:3624   */\n      pop\n        /* \"#utility.yul\":3313:3895   */\n      pop\n      pop\n      pop\n        /* \"#utility.yul\":3201:3895   */\n      pop\n      pop\n      jump\t// out\n        /* \"#utility.yul\":3901:4216   */\n    tag_34:\n        /* \"#utility.yul\":4040:4044   */\n      0x00\n        /* \"#utility.yul\":4078:4081   */\n      0x80\n        /* \"#utility.yul\":4067:4076   */\n      dup3\n        /* \"#utility.yul\":4063:4082   */\n      add\n        /* \"#utility.yul\":4055:4082   */\n      swap1\n      pop\n        /* \"#utility.yul\":4092:4209   */\n      tag_174\n        /* \"#utility.yul\":4206:4207   */\n      0x00\n        /* \"#utility.yul\":4195:4204   */\n      dup4\n        /* \"#utility.yul\":4191:4208   */\n      add\n        /* \"#utility.yul\":4182:4188   */\n      dup5\n        /* \"#utility.yul\":4092:4209   */\n      tag_106\n      jump\t// in\n    tag_174:\n        /* \"#utility.yul\":3901:4216   */\n      swap3\n      swap2\n      pop\n      pop\n      jump\t// out\n        /* \"#utility.yul\":4222:4334   */\n    tag_107:\n        /* \"#utility.yul\":4308:4309   */\n      0x04\n        /* \"#utility.yul\":4301:4306   */\n      dup2\n        /* \"#utility.yul\":4298:4310   */\n      lt\n        /* \"#utility.yul\":4288:4328   */\n      tag_176\n      jumpi\n        /* \"#utility.yul\":4324:4325   */\n      0x00\n        /* \"#utility.yul\":4321:4322   */\n      dup1\n        /* \"#utility.yul\":4314:4326   */\n      revert\n        /* \"#utility.yul\":4288:4328   */\n    tag_176:\n        /* \"#utility.yul\":4222:4334   */\n      pop\n      jump\t// out\n        /* \"#utility.yul\":4340:4505   */\n    tag_108:\n        /* \"#utility.yul\":4399:4404   */\n      0x00\n        /* \"#utility.yul\":4437:4443   */\n      dup2\n        /* \"#utility.yul\":4424:4444   */\n      calldataload\n        /* \"#utility.yul\":4415:4444   */\n      swap1\n      pop\n        /* \"#utility.yul\":4453:4499   */\n      tag_178\n        /* \"#utility.yul\":4493:4498   */\n      dup2\n        /* \"#utility.yul\":4453:4499   */\n      tag_107\n      jump\t// in\n    tag_178:\n        /* \"#utility.yul\":4340:4505   */\n      swap3\n      swap2\n      pop\n      pop\n      jump\t// out\n        /* \"#utility.yul\":4511:4866   */\n    tag_47:\n        /* \"#utility.yul\":4583:4589   */\n      0x00\n        /* \"#utility.yul\":4632:4634   */\n      0x20\n        /* \"#utility.yul\":4620:4629   */\n      dup3\n        /* \"#utility.yul\":4611:4618   */\n      dup5\n        /* \"#utility.yul\":4607:4630   */\n      sub\n        /* \"#utility.yul\":4603:4635   */\n      slt\n        /* \"#utility.yul\":4600:4719   */\n      iszero\n      tag_180\n      jumpi\n        /* \"#utility.yul\":4638:4717   */\n      tag_181\n      tag_89\n      jump\t// in\n    tag_181:\n        /* \"#utility.yul\":4600:4719   */\n    tag_180:\n        /* \"#utility.yul\":4758:4759   */\n      0x00\n        /* \"#utility.yul\":4783:4849   */\n      tag_182\n        /* \"#utility.yul\":4841:4848   */\n      dup5\n        /* \"#utility.yul\":4832:4838   */\n      dup3\n        /* \"#utility.yul\":4821:4830   */\n      dup6\n        /* \"#utility.yul\":4817:4839   */\n      add\n        /* \"#utility.yul\":4783:4849   */\n      tag_108\n      jump\t// in\n    tag_182:\n        /* \"#utility.yul\":4773:4849   */\n      swap2\n      pop\n        /* \"#utility.yul\":4729:4859   */\n      pop\n        /* \"#utility.yul\":4511:4866   */\n      swap3\n      swap2\n      pop\n      pop\n      jump\t// out\n        /* \"#utility.yul\":4872:4958   */\n    tag_109:\n        /* \"#utility.yul\":4907:4914   */\n      0x00\n        /* \"#utility.yul\":4947:4951   */\n      0xff\n        /* \"#utility.yul\":4940:4945   */\n      dup3\n        /* \"#utility.yul\":4936:4952   */\n      and\n        /* \"#utility.yul\":4925:4952   */\n      swap1\n      pop\n        /* \"#utility.yul\":4872:4958   */\n      swap2\n      swap1\n      pop\n      jump\t// out\n        /* \"#utility.yul\":4964:5082   */\n    tag_110:\n        /* \"#utility.yul\":5035:5057   */\n      tag_185\n        /* \"#utility.yul\":5051:5056   */\n      dup2\n        /* \"#utility.yul\":5035:5057   */\n      tag_109\n      jump\t// in\n    tag_185:\n        /* \"#utility.yul\":5028:5033   */\n      dup2\n        /* \"#utility.yul\":5025:5058   */\n      eq\n        /* \"#utility.yul\":5015:5076   */\n      tag_186\n      jumpi\n        /* \"#utility.yul\":5072:5073   */\n      0x00\n        /* \"#utility.yul\":5069:5070   */\n      dup1\n        /* \"#utility.yul\":5062:5074   */\n      revert\n        /* \"#utility.yul\":5015:5076   */\n    tag_186:\n        /* \"#utility.yul\":4964:5082   */\n      pop\n      jump\t// out\n        /* \"#utility.yul\":5088:5223   */\n    tag_111:\n        /* \"#utility.yul\":5132:5137   */\n      0x00\n        /* \"#utility.yul\":5170:5176   */\n      dup2\n        /* \"#utility.yul\":5157:5177   */\n      calldataload\n        /* \"#utility.yul\":5148:5177   */\n      swap1\n      pop\n        /* \"#utility.yul\":5186:5217   */\n      tag_188\n        /* \"#utility.yul\":5211:5216   */\n      dup2\n        /* \"#utility.yul\":5186:5217   */\n      tag_110\n      jump\t// in\n    tag_188:\n        /* \"#utility.yul\":5088:5223   */\n      swap3\n      swap2\n      pop\n      pop\n      jump\t// out\n        /* \"#utility.yul\":5229:5554   */\n    tag_51:\n        /* \"#utility.yul\":5286:5292   */\n      0x00\n        /* \"#utility.yul\":5335:5337   */\n      0x20\n        /* \"#utility.yul\":5323:5332   */\n      dup3\n        /* \"#utility.yul\":5314:5321   */\n      dup5\n        /* \"#utility.yul\":5310:5333   */\n      sub\n        /* \"#utility.yul\":5306:5338   */\n      slt\n        /* \"#utility.yul\":5303:5422   */\n      iszero\n      tag_190\n      jumpi\n        /* \"#utility.yul\":5341:5420   */\n      tag_191\n      tag_89\n      jump\t// in\n    tag_191:\n        /* \"#utility.yul\":5303:5422   */\n    tag_190:\n        /* \"#utility.yul\":5461:5462   */\n      0x00\n        /* \"#utility.yul\":5486:5537   */\n      tag_192\n        /* \"#utility.yul\":5529:5536   */\n      dup5\n        /* \"#utility.yul\":5520:5526   */\n      dup3\n        /* \"#utility.yul\":5509:5518   */\n      dup6\n        /* \"#utility.yul\":5505:5527   */\n      add\n        /* \"#utility.yul\":5486:5537   */\n      tag_111\n      jump\t// in\n    tag_192:\n        /* \"#utility.yul\":5476:5537   */\n      swap2\n      pop\n        /* \"#utility.yul\":5432:5547   */\n      pop\n        /* \"#utility.yul\":5229:5554   */\n      swap3\n      swap2\n      pop\n      pop\n      jump\t// out\n        /* \"#utility.yul\":5560:5729   */\n    tag_112:\n        /* \"#utility.yul\":5644:5655   */\n      0x00\n        /* \"#utility.yul\":5678:5684   */\n      dup3\n        /* \"#utility.yul\":5673:5676   */\n      dup3\n        /* \"#utility.yul\":5666:5685   */\n      mstore\n        /* \"#utility.yul\":5718:5722   */\n      0x20\n        /* \"#utility.yul\":5713:5716   */\n      dup3\n        /* \"#utility.yul\":5709:5723   */\n      add\n        /* \"#utility.yul\":5694:5723   */\n      swap1\n      pop\n        /* \"#utility.yul\":5560:5729   */\n      swap3\n      swap2\n      pop\n      pop\n      jump\t// out\n        /* \"#utility.yul\":5735:5959   */\n    tag_113:\n        /* \"#utility.yul\":5875:5909   */\n      0x4f6e6c79206d6f64657261746f722063616e2063616c6c20746869732066756e\n        /* \"#utility.yul\":5871:5872   */\n      0x00\n        /* \"#utility.yul\":5863:5869   */\n      dup3\n        /* \"#utility.yul\":5859:5873   */\n      add\n        /* \"#utility.yul\":5852:5910   */\n      mstore\n        /* \"#utility.yul\":5944:5951   */\n      0x6374696f6e000000000000000000000000000000000000000000000000000000\n        /* \"#utility.yul\":5939:5941   */\n      0x20\n        /* \"#utility.yul\":5931:5937   */\n      dup3\n        /* \"#utility.yul\":5927:5942   */\n      add\n        /* \"#utility.yul\":5920:5952   */\n      mstore\n        /* \"#utility.yul\":5735:5959   */\n      pop\n      jump\t// out\n        /* \"#utility.yul\":5965:6331   */\n    tag_114:\n        /* \"#utility.yul\":6107:6110   */\n      0x00\n        /* \"#utility.yul\":6128:6195   */\n      tag_196\n        /* \"#utility.yul\":6192:6194   */\n      0x25\n        /* \"#utility.yul\":6187:6190   */\n      dup4\n        /* \"#utility.yul\":6128:6195   */\n      tag_112\n      jump\t// in\n    tag_196:\n        /* \"#utility.yul\":6121:6195   */\n      swap2\n      pop\n        /* \"#utility.yul\":6204:6297   */\n      tag_197\n        /* \"#utility.yul\":6293:6296   */\n      dup3\n        /* \"#utility.yul\":6204:6297   */\n      tag_113\n      jump\t// in\n    tag_197:\n        /* \"#utility.yul\":6322:6324   */\n      0x40\n        /* \"#utility.yul\":6317:6320   */\n      dup3\n        /* \"#utility.yul\":6313:6325   */\n      add\n        /* \"#utility.yul\":6306:6325   */\n      swap1\n      pop\n        /* \"#utility.yul\":5965:6331   */\n      swap2\n      swap1\n      pop\n      jump\t// out\n        /* \"#utility.yul\":6337:6756   */\n    tag_62:\n        /* \"#utility.yul\":6503:6507   */\n      0x00\n        /* \"#utility.yul\":6541:6543   */\n      0x20\n        /* \"#utility.yul\":6530:6539   */\n      dup3\n        /* \"#utility.yul\":6526:6544   */\n      add\n        /* \"#utility.yul\":6518:6544   */\n      swap1\n      pop\n        /* \"#utility.yul\":6590:6599   */\n      dup2\n        /* \"#utility.yul\":6584:6588   */\n      dup2\n        /* \"#utility.yul\":6580:6600   */\n      sub\n        /* \"#utility.yul\":6576:6577   */\n      0x00\n        /* \"#utility.yul\":6565:6574   */\n      dup4\n        /* \"#utility.yul\":6561:6578   */\n      add\n        /* \"#utility.yul\":6554:6601   */\n      mstore\n        /* \"#utility.yul\":6618:6749   */\n      tag_199\n        /* \"#utility.yul\":6744:6748   */\n      dup2\n        /* \"#utility.yul\":6618:6749   */\n      tag_114\n      jump\t// in\n    tag_199:\n        /* \"#utility.yul\":6610:6749   */\n      swap1\n      pop\n        /* \"#utility.yul\":6337:6756   */\n      swap2\n      swap1\n      pop\n      jump\t// out\n        /* \"#utility.yul\":6762:6936   */\n    tag_115:\n        /* \"#utility.yul\":6902:6928   */\n      0x566f74696e6720686173206e6f7420656e646564207965740000000000000000\n        /* \"#utility.yul\":6898:6899   */\n      0x00\n        /* \"#utility.yul\":6890:6896   */\n      dup3\n        /* \"#utility.yul\":6886:6900   */\n      add\n        /* \"#utility.yul\":6879:6929   */\n      mstore\n        /* \"#utility.yul\":6762:6936   */\n      pop\n      jump\t// out\n        /* \"#utility.yul\":6942:7308   */\n    tag_116:\n        /* \"#utility.yul\":7084:7087   */\n      0x00\n        /* \"#utility.yul\":7105:7172   */\n      tag_202\n        /* \"#utility.yul\":7169:7171   */\n      0x18\n        /* \"#utility.yul\":7164:7167   */\n      dup4\n        /* \"#utility.yul\":7105:7172   */\n      tag_112\n      jump\t// in\n    tag_202:\n        /* \"#utility.yul\":7098:7172   */\n      swap2\n      pop\n        /* \"#utility.yul\":7181:7274   */\n      tag_203\n        /* \"#utility.yul\":7270:7273   */\n      dup3\n        /* \"#utility.yul\":7181:7274   */\n      tag_115\n      jump\t// in\n    tag_203:\n        /* \"#utility.yul\":7299:7301   */\n      0x20\n        /* \"#utility.yul\":7294:7297   */\n      dup3\n        /* \"#utility.yul\":7290:7302   */\n      add\n        /* \"#utility.yul\":7283:7302   */\n      swap1\n      pop\n        /* \"#utility.yul\":6942:7308   */\n      swap2\n      swap1\n      pop\n      jump\t// out\n        /* \"#utility.yul\":7314:7733   */\n    tag_68:\n        /* \"#utility.yul\":7480:7484   */\n      0x00\n        /* \"#utility.yul\":7518:7520   */\n      0x20\n        /* \"#utility.yul\":7507:7516   */\n      dup3\n        /* \"#utility.yul\":7503:7521   */\n      add\n        /* \"#utility.yul\":7495:7521   */\n      swap1\n      pop\n        /* \"#utility.yul\":7567:7576   */\n      dup2\n        /* \"#utility.yul\":7561:7565   */\n      dup2\n        /* \"#utility.yul\":7557:7577   */\n      sub\n        /* \"#utility.yul\":7553:7554   */\n      0x00\n        /* \"#utility.yul\":7542:7551   */\n      dup4\n        /* \"#utility.yul\":7538:7555   */\n      add\n        /* \"#utility.yul\":7531:7578   */\n      mstore\n        /* \"#utility.yul\":7595:7726   */\n      tag_205\n        /* \"#utility.yul\":7721:7725   */\n      dup2\n        /* \"#utility.yul\":7595:7726   */\n      tag_116\n      jump\t// in\n    tag_205:\n        /* \"#utility.yul\":7587:7726   */\n      swap1\n      pop\n        /* \"#utility.yul\":7314:7733   */\n      swap2\n      swap1\n      pop\n      jump\t// out\n        /* \"#utility.yul\":7739:7914   */\n    tag_117:\n        /* \"#utility.yul\":7879:7906   */\n      0x4e6f7420696e636c7564656420696e2077686974656c69737400000000000000\n        /* \"#utility.yul\":7875:7876   */\n      0x00\n        /* \"#utility.yul\":7867:7873   */\n      dup3\n        /* \"#utility.yul\":7863:7877   */\n      add\n        /* \"#utility.yul\":7856:7907   */\n      mstore\n        /* \"#utility.yul\":7739:7914   */\n      pop\n      jump\t// out\n        /* \"#utility.yul\":7920:8286   */\n    tag_118:\n        /* \"#utility.yul\":8062:8065   */\n      0x00\n        /* \"#utility.yul\":8083:8150   */\n      tag_208\n        /* \"#utility.yul\":8147:8149   */\n      0x19\n        /* \"#utility.yul\":8142:8145   */\n      dup4\n        /* \"#utility.yul\":8083:8150   */\n      tag_112\n      jump\t// in\n    tag_208:\n        /* \"#utility.yul\":8076:8150   */\n      swap2\n      pop\n        /* \"#utility.yul\":8159:8252   */\n      tag_209\n        /* \"#utility.yul\":8248:8251   */\n      dup3\n        /* \"#utility.yul\":8159:8252   */\n      tag_117\n      jump\t// in\n    tag_209:\n        /* \"#utility.yul\":8277:8279   */\n      0x20\n        /* \"#utility.yul\":8272:8275   */\n      dup3\n        /* \"#utility.yul\":8268:8280   */\n      add\n        /* \"#utility.yul\":8261:8280   */\n      swap1\n      pop\n        /* \"#utility.yul\":7920:8286   */\n      swap2\n      swap1\n      pop\n      jump\t// out\n        /* \"#utility.yul\":8292:8711   */\n    tag_73:\n        /* \"#utility.yul\":8458:8462   */\n      0x00\n        /* \"#utility.yul\":8496:8498   */\n      0x20\n        /* \"#utility.yul\":8485:8494   */\n      dup3\n        /* \"#utility.yul\":8481:8499   */\n      add\n        /* \"#utility.yul\":8473:8499   */\n      swap1\n      pop\n        /* \"#utility.yul\":8545:8554   */\n      dup2\n        /* \"#utility.yul\":8539:8543   */\n      dup2\n        /* \"#utility.yul\":8535:8555   */\n      sub\n        /* \"#utility.yul\":8531:8532   */\n      0x00\n        /* \"#utility.yul\":8520:8529   */\n      dup4\n        /* \"#utility.yul\":8516:8533   */\n      add\n        /* \"#utility.yul\":8509:8556   */\n      mstore\n        /* \"#utility.yul\":8573:8704   */\n      tag_211\n        /* \"#utility.yul\":8699:8703   */\n      dup2\n        /* \"#utility.yul\":8573:8704   */\n      tag_118\n      jump\t// in\n    tag_211:\n        /* \"#utility.yul\":8565:8704   */\n      swap1\n      pop\n        /* \"#utility.yul\":8292:8711   */\n      swap2\n      swap1\n      pop\n      jump\t// out\n        /* \"#utility.yul\":8717:8889   */\n    tag_119:\n        /* \"#utility.yul\":8857:8881   */\n      0x596f75206861766520616c726561647920766f74656400000000000000000000\n        /* \"#utility.yul\":8853:8854   */\n      0x00\n        /* \"#utility.yul\":8845:8851   */\n      dup3\n        /* \"#utility.yul\":8841:8855   */\n      add\n        /* \"#utility.yul\":8834:8882   */\n      mstore\n        /* \"#utility.yul\":8717:8889   */\n      pop\n      jump\t// out\n        /* \"#utility.yul\":8895:9261   */\n    tag_120:\n        /* \"#utility.yul\":9037:9040   */\n      0x00\n        /* \"#utility.yul\":9058:9125   */\n      tag_214\n        /* \"#utility.yul\":9122:9124   */\n      0x16\n        /* \"#utility.yul\":9117:9120   */\n      dup4\n        /* \"#utility.yul\":9058:9125   */\n      tag_112\n      jump\t// in\n    tag_214:\n        /* \"#utility.yul\":9051:9125   */\n      swap2\n      pop\n        /* \"#utility.yul\":9134:9227   */\n      tag_215\n        /* \"#utility.yul\":9223:9226   */\n      dup3\n        /* \"#utility.yul\":9134:9227   */\n      tag_119\n      jump\t// in\n    tag_215:\n        /* \"#utility.yul\":9252:9254   */\n      0x20\n        /* \"#utility.yul\":9247:9250   */\n      dup3\n        /* \"#utility.yul\":9243:9255   */\n      add\n        /* \"#utility.yul\":9236:9255   */\n      swap1\n      pop\n        /* \"#utility.yul\":8895:9261   */\n      swap2\n      swap1\n      pop\n      jump\t// out\n        /* \"#utility.yul\":9267:9686   */\n    tag_77:\n        /* \"#utility.yul\":9433:9437   */\n      0x00\n        /* \"#utility.yul\":9471:9473   */\n      0x20\n        /* \"#utility.yul\":9460:9469   */\n      dup3\n        /* \"#utility.yul\":9456:9474   */\n      add\n        /* \"#utility.yul\":9448:9474   */\n      swap1\n      pop\n        /* \"#utility.yul\":9520:9529   */\n      dup2\n        /* \"#utility.yul\":9514:9518   */\n      dup2\n        /* \"#utility.yul\":9510:9530   */\n      sub\n        /* \"#utility.yul\":9506:9507   */\n      0x00\n        /* \"#utility.yul\":9495:9504   */\n      dup4\n        /* \"#utility.yul\":9491:9508   */\n      add\n        /* \"#utility.yul\":9484:9531   */\n      mstore\n        /* \"#utility.yul\":9548:9679   */\n      tag_217\n        /* \"#utility.yul\":9674:9678   */\n      dup2\n        /* \"#utility.yul\":9548:9679   */\n      tag_120\n      jump\t// in\n    tag_217:\n        /* \"#utility.yul\":9540:9679   */\n      swap1\n      pop\n        /* \"#utility.yul\":9267:9686   */\n      swap2\n      swap1\n      pop\n      jump\t// out\n        /* \"#utility.yul\":9692:9872   */\n    tag_81:\n        /* \"#utility.yul\":9740:9817   */\n      0x4e487b7100000000000000000000000000000000000000000000000000000000\n        /* \"#utility.yul\":9737:9738   */\n      0x00\n        /* \"#utility.yul\":9730:9818   */\n      mstore\n        /* \"#utility.yul\":9837:9841   */\n      0x21\n        /* \"#utility.yul\":9834:9835   */\n      0x04\n        /* \"#utility.yul\":9827:9842   */\n      mstore\n        /* \"#utility.yul\":9861:9865   */\n      0x24\n        /* \"#utility.yul\":9858:9859   */\n      0x00\n        /* \"#utility.yul\":9851:9866   */\n      revert\n        /* \"#utility.yul\":9878:10058   */\n    tag_121:\n        /* \"#utility.yul\":9926:10003   */\n      0x4e487b7100000000000000000000000000000000000000000000000000000000\n        /* \"#utility.yul\":9923:9924   */\n      0x00\n        /* \"#utility.yul\":9916:10004   */\n      mstore\n        /* \"#utility.yul\":10023:10027   */\n      0x11\n        /* \"#utility.yul\":10020:10021   */\n      0x04\n        /* \"#utility.yul\":10013:10028   */\n      mstore\n        /* \"#utility.yul\":10047:10051   */\n      0x24\n        /* \"#utility.yul\":10044:10045   */\n      0x00\n        /* \"#utility.yul\":10037:10052   */\n      revert\n        /* \"#utility.yul\":10064:10297   */\n    tag_83:\n        /* \"#utility.yul\":10103:10106   */\n      0x00\n        /* \"#utility.yul\":10126:10150   */\n      tag_221\n        /* \"#utility.yul\":10144:10149   */\n      dup3\n        /* \"#utility.yul\":10126:10150   */\n      tag_98\n      jump\t// in\n    tag_221:\n        /* \"#utility.yul\":10117:10150   */\n      swap2\n      pop\n        /* \"#utility.yul\":10172:10238   */\n      0xffffffffffffffffffffffffffffffffffffffffffffffffffffffffffffffff\n        /* \"#utility.yul\":10165:10170   */\n      dup3\n        /* \"#utility.yul\":10162:10239   */\n      sub\n        /* \"#utility.yul\":10159:10262   */\n      tag_222\n      jumpi\n        /* \"#utility.yul\":10242:10260   */\n      tag_223\n      tag_121\n      jump\t// in\n    tag_223:\n        /* \"#utility.yul\":10159:10262   */\n    tag_222:\n        /* \"#utility.yul\":10289:10290   */\n      0x01\n        /* \"#utility.yul\":10282:10287   */\n      dup3\n        /* \"#utility.yul\":10278:10291   */\n      add\n        /* \"#utility.yul\":10271:10291   */\n      swap1\n      pop\n        /* \"#utility.yul\":10064:10297   */\n      swap2\n      swap1\n      pop\n      jump\t// out\n        /* \"#utility.yul\":10303:10494   */\n    tag_85:\n        /* \"#utility.yul\":10343:10346   */\n      0x00\n        /* \"#utility.yul\":10362:10382   */\n      tag_225\n        /* \"#utility.yul\":10380:10381   */\n      dup3\n        /* \"#utility.yul\":10362:10382   */\n      tag_98\n      jump\t// in\n    tag_225:\n        /* \"#utility.yul\":10357:10382   */\n      swap2\n      pop\n        /* \"#utility.yul\":10396:10416   */\n      tag_226\n        /* \"#utility.yul\":10414:10415   */\n      dup4\n        /* \"#utility.yul\":10396:10416   */\n      tag_98\n      jump\t// in\n    tag_226:\n        /* \"#utility.yul\":10391:10416   */\n      swap3\n      pop\n        /* \"#utility.yul\":10439:10440   */\n      dup3\n        /* \"#utility.yul\":10436:10437   */\n      dup3\n        /* \"#utility.yul\":10432:10441   */\n      add\n        /* \"#utility.yul\":10425:10441   */\n      swap1\n      pop\n        /* \"#utility.yul\":10460:10463   */\n      dup1\n        /* \"#utility.yul\":10457:10458   */\n      dup3\n        /* \"#utility.yul\":10454:10464   */\n      gt\n        /* \"#utility.yul\":10451:10487   */\n      iszero\n      tag_227\n      jumpi\n        /* \"#utility.yul\":10467:10485   */\n      tag_228\n      tag_121\n      jump\t// in\n    tag_228:\n        /* \"#utility.yul\":10451:10487   */\n    tag_227:\n        /* \"#utility.yul\":10303:10494   */\n      swap3\n      swap2\n      pop\n      pop\n      jump\t// out\n        /* \"#utility.yul\":10500:10618   */\n    tag_122:\n        /* \"#utility.yul\":10586:10587   */\n      0x04\n        /* \"#utility.yul\":10579:10584   */\n      dup2\n        /* \"#utility.yul\":10576:10588   */\n      lt\n        /* \"#utility.yul\":10566:10612   */\n      tag_230\n      jumpi\n        /* \"#utility.yul\":10592:10610   */\n      tag_231\n      tag_81\n      jump\t// in\n    tag_231:\n        /* \"#utility.yul\":10566:10612   */\n    tag_230:\n        /* \"#utility.yul\":10500:10618   */\n      pop\n      jump\t// out\n        /* \"#utility.yul\":10624:10761   */\n    tag_123:\n        /* \"#utility.yul\":10674:10681   */\n      0x00\n        /* \"#utility.yul\":10703:10708   */\n      dup2\n        /* \"#utility.yul\":10692:10708   */\n      swap1\n      pop\n        /* \"#utility.yul\":10709:10755   */\n      tag_233\n        /* \"#utility.yul\":10749:10754   */\n      dup3\n        /* \"#utility.yul\":10709:10755   */\n      tag_122\n      jump\t// in\n    tag_233:\n        /* \"#utility.yul\":10624:10761   */\n      swap2\n      swap1\n      pop\n      jump\t// out\n        /* \"#utility.yul\":10767:10904   */\n    tag_124:\n        /* \"#utility.yul\":10828:10837   */\n      0x00\n        /* \"#utility.yul\":10861:10898   */\n      tag_235\n        /* \"#utility.yul\":10892:10897   */\n      dup3\n        /* \"#utility.yul\":10861:10898   */\n      tag_123\n      jump\t// in\n    tag_235:\n        /* \"#utility.yul\":10848:10898   */\n      swap1\n      pop\n        /* \"#utility.yul\":10767:10904   */\n      swap2\n      swap1\n      pop\n      jump\t// out\n        /* \"#utility.yul\":10910:11063   */\n    tag_125:\n        /* \"#utility.yul\":11008:11056   */\n      tag_237\n        /* \"#utility.yul\":11050:11055   */\n      dup2\n        /* \"#utility.yul\":11008:11056   */\n      tag_124\n      jump\t// in\n    tag_237:\n        /* \"#utility.yul\":11003:11006   */\n      dup3\n        /* \"#utility.yul\":10996:11057   */\n      mstore\n        /* \"#utility.yul\":10910:11063   */\n      pop\n      pop\n      jump\t// out\n        /* \"#utility.yul\":11069:11313   */\n    tag_87:\n        /* \"#utility.yul\":11173:11177   */\n      0x00\n        /* \"#utility.yul\":11211:11213   */\n      0x20\n        /* \"#utility.yul\":11200:11209   */\n      dup3\n        /* \"#utility.yul\":11196:11214   */\n      add\n        /* \"#utility.yul\":11188:11214   */\n      swap1\n      pop\n        /* \"#utility.yul\":11224:11306   */\n      tag_239\n        /* \"#utility.yul\":11303:11304   */\n      0x00\n        /* \"#utility.yul\":11292:11301   */\n      dup4\n        /* \"#utility.yul\":11288:11305   */\n      add\n        /* \"#utility.yul\":11279:11285   */\n      dup5\n        /* \"#utility.yul\":11224:11306   */\n      tag_125\n      jump\t// in\n    tag_239:\n        /* \"#utility.yul\":11069:11313   */\n      swap3\n      swap2\n      pop\n      pop\n      jump\t// out\n\n    auxdata: 0xa26469706673582212202847aba7d669c6345706ed04d6e6ee2c5787a0d5f2bcfede9c36e30c17d785c764736f6c63430008180033\n}\n",
				"bytecode": {
					"linkReferences": {},
					"object": "608060405234801562000010575f80fd5b50604051620010373803806200103783398181016040528101906200003691906200034e565b335f806101000a81548173ffffffffffffffffffffffffffffffffffffffff021916908373ffffffffffffffffffffffffffffffffffffffff16021790555080516004819055505f5b815181101562000168576001805f848481518110620000a357620000a26200039d565b5b602002602001015173ffffffffffffffffffffffffffffffffffffffff1673ffffffffffffffffffffffffffffffffffffffff1681526020019081526020015f205f6101000a81548160ff02191690831515021790555081818151811062000110576200010f6200039d565b5b602002602001015173ffffffffffffffffffffffffffffffffffffffff167faab7954e9d246b167ef88aeddad35209ca2489d95a8aeb59e288d9b19fae5a5460405160405180910390a280806001019150506200007f565b5050620003ca565b5f604051905090565b5f80fd5b5f80fd5b5f80fd5b5f601f19601f8301169050919050565b7f4e487b71000000000000000000000000000000000000000000000000000000005f52604160045260245ffd5b620001cd8262000185565b810181811067ffffffffffffffff82111715620001ef57620001ee62000195565b5b80604052505050565b5f6200020362000170565b9050620002118282620001c2565b919050565b5f67ffffffffffffffff82111562000233576200023262000195565b5b602082029050602081019050919050565b5f80fd5b5f73ffffffffffffffffffffffffffffffffffffffff82169050919050565b5f620002738262000248565b9050919050565b620002858162000267565b811462000290575f80fd5b50565b5f81519050620002a3816200027a565b92915050565b5f620002bf620002b98462000216565b620001f8565b90508083825260208201905060208402830185811115620002e557620002e462000244565b5b835b81811015620003125780620002fd888262000293565b845260208401935050602081019050620002e7565b5050509392505050565b5f82601f83011262000333576200033262000181565b5b815162000345848260208601620002a9565b91505092915050565b5f6020828403121562000366576200036562000179565b5b5f82015167ffffffffffffffff8111156200038657620003856200017d565b5b62000394848285016200031c565b91505092915050565b7f4e487b71000000000000000000000000000000000000000000000000000000005f52603260045260245ffd5b610c5f80620003d85f395ff3fe608060405234801561000f575f80fd5b506004361061009c575f3560e01c8063785ba4de11610064578063785ba4de146101485780638778b27d146101665780639b19251a14610184578063b3f98adc146101b4578063c1b43357146101d05761009c565b806309eef43e146100a057806338743904146100d05780633dd079c0146100ee5780635f5300ff1461010c57806372b4ca471461012a575b5f80fd5b6100ba60048036038101906100b591906106fc565b610200565b6040516100c79190610741565b60405180910390f35b6100d861021d565b6040516100e59190610769565b60405180910390f35b6100f6610240565b6040516101039190610741565b60405180910390f35b61011461025c565b604051610121919061079a565b60405180910390f35b610132610262565b60405161013f9190610858565b60405180910390f35b610150610370565b60405161015d9190610858565b60405180910390f35b61016e610438565b60405161017b919061079a565b60405180910390f35b61019e600480360381019061019991906106fc565b61043e565b6040516101ab9190610741565b60405180910390f35b6101ce60048036038101906101c99190610894565b61045b565b005b6101ea60048036038101906101e591906108f5565b610667565b6040516101f7919061079a565b60405180910390f35b6002602052805f5260405f205f915054906101000a900460ff1681565b5f8054906101000a900473ffffffffffffffffffffffffffffffffffffffff1681565b5f600454600554036102555760019050610259565b5f90505b90565b60045481565b61026a61067c565b5f8054906101000a900473ffffffffffffffffffffffffffffffffffffffff1673ffffffffffffffffffffffffffffffffffffffff163373ffffffffffffffffffffffffffffffffffffffff16146102f7576040517f08c379a00000000000000000000000000000000000000000000000000000000081526004016102ee906109a0565b60405180910390fd5b604051806080016040528060035f8060ff1681526020019081526020015f2054815260200160035f600160ff1681526020019081526020015f2054815260200160035f600260ff1681526020019081526020015f2054815260200160035f600360ff1681526020019081526020015f2054815250905090565b61037861067c565b60045460055410156103bf576040517f08c379a00000000000000000000000000000000000000000000000000000000081526004016103b690610a08565b60405180910390fd5b604051806080016040528060035f8060ff1681526020019081526020015f2054815260200160035f600160ff1681526020019081526020015f2054815260200160035f600260ff1681526020019081526020015f2054815260200160035f600360ff1681526020019081526020015f2054815250905090565b60055481565b6001602052805f5260405f205f915054906101000a900460ff1681565b60015f3373ffffffffffffffffffffffffffffffffffffffff1673ffffffffffffffffffffffffffffffffffffffff1681526020019081526020015f205f9054906101000a900460ff166104e4576040517f08c379a00000000000000000000000000000000000000000000000000000000081526004016104db90610a70565b60405180910390fd5b60025f3373ffffffffffffffffffffffffffffffffffffffff1673ffffffffffffffffffffffffffffffffffffffff1681526020019081526020015f205f9054906101000a900460ff161561056e576040517f08c379a000000000000000000000000000000000000000000000000000000000815260040161056590610ad8565b60405180910390fd5b60035f82600381111561058457610583610af6565b5b60ff1660ff1681526020019081526020015f205f8154809291906105a790610b50565b9190505550600160025f3373ffffffffffffffffffffffffffffffffffffffff1673ffffffffffffffffffffffffffffffffffffffff1681526020019081526020015f205f6101000a81548160ff02191690831515021790555060016005546106109190610b97565b6005819055503373ffffffffffffffffffffffffffffffffffffffff167f14075e33dffdc00c1fcaf75d0f86d667170be57fb566b12b41b499e5fa53b1258260405161065c9190610c10565b60405180910390a250565b6003602052805f5260405f205f915090505481565b6040518060800160405280600490602082028036833780820191505090505090565b5f80fd5b5f73ffffffffffffffffffffffffffffffffffffffff82169050919050565b5f6106cb826106a2565b9050919050565b6106db816106c1565b81146106e5575f80fd5b50565b5f813590506106f6816106d2565b92915050565b5f602082840312156107115761071061069e565b5b5f61071e848285016106e8565b91505092915050565b5f8115159050919050565b61073b81610727565b82525050565b5f6020820190506107545f830184610732565b92915050565b610763816106c1565b82525050565b5f60208201905061077c5f83018461075a565b92915050565b5f819050919050565b61079481610782565b82525050565b5f6020820190506107ad5f83018461078b565b92915050565b5f60049050919050565b5f81905092915050565b5f819050919050565b6107d981610782565b82525050565b5f6107ea83836107d0565b60208301905092915050565b5f602082019050919050565b61080b816107b3565b61081581846107bd565b9250610820826107c7565b805f5b8381101561085057815161083787826107df565b9650610842836107f6565b925050600181019050610823565b505050505050565b5f60808201905061086b5f830184610802565b92915050565b6004811061087d575f80fd5b50565b5f8135905061088e81610871565b92915050565b5f602082840312156108a9576108a861069e565b5b5f6108b684828501610880565b91505092915050565b5f60ff82169050919050565b6108d4816108bf565b81146108de575f80fd5b50565b5f813590506108ef816108cb565b92915050565b5f6020828403121561090a5761090961069e565b5b5f610917848285016108e1565b91505092915050565b5f82825260208201905092915050565b7f4f6e6c79206d6f64657261746f722063616e2063616c6c20746869732066756e5f8201527f6374696f6e000000000000000000000000000000000000000000000000000000602082015250565b5f61098a602583610920565b915061099582610930565b604082019050919050565b5f6020820190508181035f8301526109b78161097e565b9050919050565b7f566f74696e6720686173206e6f7420656e6465642079657400000000000000005f82015250565b5f6109f2601883610920565b91506109fd826109be565b602082019050919050565b5f6020820190508181035f830152610a1f816109e6565b9050919050565b7f4e6f7420696e636c7564656420696e2077686974656c697374000000000000005f82015250565b5f610a5a601983610920565b9150610a6582610a26565b602082019050919050565b5f6020820190508181035f830152610a8781610a4e565b9050919050565b7f596f75206861766520616c726561647920766f746564000000000000000000005f82015250565b5f610ac2601683610920565b9150610acd82610a8e565b602082019050919050565b5f6020820190508181035f830152610aef81610ab6565b9050919050565b7f4e487b71000000000000000000000000000000000000000000000000000000005f52602160045260245ffd5b7f4e487b71000000000000000000000000000000000000000000000000000000005f52601160045260245ffd5b5f610b5a82610782565b91507fffffffffffffffffffffffffffffffffffffffffffffffffffffffffffffffff8203610b8c57610b8b610b23565b5b600182019050919050565b5f610ba182610782565b9150610bac83610782565b9250828201905080821115610bc457610bc3610b23565b5b92915050565b60048110610bdb57610bda610af6565b5b50565b5f819050610beb82610bca565b919050565b5f610bfa82610bde565b9050919050565b610c0a81610bf0565b82525050565b5f602082019050610c235f830184610c01565b9291505056fea26469706673582212202847aba7d669c6345706ed04d6e6ee2c5787a0d5f2bcfede9c36e30c17d785c764736f6c63430008180033",
					"opcodes": "PUSH1 0x80 PUSH1 0x40 MSTORE CALLVALUE DUP1 ISZERO PUSH3 0x10 JUMPI PUSH0 DUP1 REVERT JUMPDEST POP PUSH1 0x40 MLOAD PUSH3 0x1037 CODESIZE SUB DUP1 PUSH3 0x1037 DUP4 CODECOPY DUP2 DUP2 ADD PUSH1 0x40 MSTORE DUP2 ADD SWAP1 PUSH3 0x36 SWAP2 SWAP1 PUSH3 0x34E JUMP JUMPDEST CALLER PUSH0 DUP1 PUSH2 0x100 EXP DUP2 SLOAD DUP2 PUSH20 0xFFFFFFFFFFFFFFFFFFFFFFFFFFFFFFFFFFFFFFFF MUL NOT AND SWAP1 DUP4 PUSH20 0xFFFFFFFFFFFFFFFFFFFFFFFFFFFFFFFFFFFFFFFF AND MUL OR SWAP1 SSTORE POP DUP1 MLOAD PUSH1 0x4 DUP2 SWAP1 SSTORE POP PUSH0 JUMPDEST DUP2 MLOAD DUP2 LT ISZERO PUSH3 0x168 JUMPI PUSH1 0x1 DUP1 PUSH0 DUP5 DUP5 DUP2 MLOAD DUP2 LT PUSH3 0xA3 JUMPI PUSH3 0xA2 PUSH3 0x39D JUMP JUMPDEST JUMPDEST PUSH1 0x20 MUL PUSH1 0x20 ADD ADD MLOAD PUSH20 0xFFFFFFFFFFFFFFFFFFFFFFFFFFFFFFFFFFFFFFFF AND PUSH20 0xFFFFFFFFFFFFFFFFFFFFFFFFFFFFFFFFFFFFFFFF AND DUP2 MSTORE PUSH1 0x20 ADD SWAP1 DUP2 MSTORE PUSH1 0x20 ADD PUSH0 KECCAK256 PUSH0 PUSH2 0x100 EXP DUP2 SLOAD DUP2 PUSH1 0xFF MUL NOT AND SWAP1 DUP4 ISZERO ISZERO MUL OR SWAP1 SSTORE POP DUP2 DUP2 DUP2 MLOAD DUP2 LT PUSH3 0x110 JUMPI PUSH3 0x10F PUSH3 0x39D JUMP JUMPDEST JUMPDEST PUSH1 0x20 MUL PUSH1 0x20 ADD ADD MLOAD PUSH20 0xFFFFFFFFFFFFFFFFFFFFFFFFFFFFFFFFFFFFFFFF AND PUSH32 0xAAB7954E9D246B167EF88AEDDAD35209CA2489D95A8AEB59E288D9B19FAE5A54 PUSH1 0x40 MLOAD PUSH1 0x40 MLOAD DUP1 SWAP2 SUB SWAP1 LOG2 DUP1 DUP1 PUSH1 0x1 ADD SWAP2 POP POP PUSH3 0x7F JUMP JUMPDEST POP POP PUSH3 0x3CA JUMP JUMPDEST PUSH0 PUSH1 0x40 MLOAD SWAP1 POP SWAP1 JUMP JUMPDEST PUSH0 DUP1 REVERT JUMPDEST PUSH0 DUP1 REVERT JUMPDEST PUSH0 DUP1 REVERT JUMPDEST PUSH0 PUSH1 0x1F NOT PUSH1 0x1F DUP4 ADD AND SWAP1 POP SWAP2 SWAP1 POP JUMP JUMPDEST PUSH32 0x4E487B7100000000000000000000000000000000000000000000000000000000 PUSH0 MSTORE PUSH1 0x41 PUSH1 0x4 MSTORE PUSH1 0x24 PUSH0 REVERT JUMPDEST PUSH3 0x1CD DUP3 PUSH3 0x185 JUMP JUMPDEST DUP2 ADD DUP2 DUP2 LT PUSH8 0xFFFFFFFFFFFFFFFF DUP3 GT OR ISZERO PUSH3 0x1EF JUMPI PUSH3 0x1EE PUSH3 0x195 JUMP JUMPDEST JUMPDEST DUP1 PUSH1 0x40 MSTORE POP POP POP JUMP JUMPDEST PUSH0 PUSH3 0x203 PUSH3 0x170 JUMP JUMPDEST SWAP1 POP PUSH3 0x211 DUP3 DUP3 PUSH3 0x1C2 JUMP JUMPDEST SWAP2 SWAP1 POP JUMP JUMPDEST PUSH0 PUSH8 0xFFFFFFFFFFFFFFFF DUP3 GT ISZERO PUSH3 0x233 JUMPI PUSH3 0x232 PUSH3 0x195 JUMP JUMPDEST JUMPDEST PUSH1 0x20 DUP3 MUL SWAP1 POP PUSH1 0x20 DUP2 ADD SWAP1 POP SWAP2 SWAP1 POP JUMP JUMPDEST PUSH0 DUP1 REVERT JUMPDEST PUSH0 PUSH20 0xFFFFFFFFFFFFFFFFFFFFFFFFFFFFFFFFFFFFFFFF DUP3 AND SWAP1 POP SWAP2 SWAP1 POP JUMP JUMPDEST PUSH0 PUSH3 0x273 DUP3 PUSH3 0x248 JUMP JUMPDEST SWAP1 POP SWAP2 SWAP1 POP JUMP JUMPDEST PUSH3 0x285 DUP2 PUSH3 0x267 JUMP JUMPDEST DUP2 EQ PUSH3 0x290 JUMPI PUSH0 DUP1 REVERT JUMPDEST POP JUMP JUMPDEST PUSH0 DUP2 MLOAD SWAP1 POP PUSH3 0x2A3 DUP2 PUSH3 0x27A JUMP JUMPDEST SWAP3 SWAP2 POP POP JUMP JUMPDEST PUSH0 PUSH3 0x2BF PUSH3 0x2B9 DUP5 PUSH3 0x216 JUMP JUMPDEST PUSH3 0x1F8 JUMP JUMPDEST SWAP1 POP DUP1 DUP4 DUP3 MSTORE PUSH1 0x20 DUP3 ADD SWAP1 POP PUSH1 0x20 DUP5 MUL DUP4 ADD DUP6 DUP2 GT ISZERO PUSH3 0x2E5 JUMPI PUSH3 0x2E4 PUSH3 0x244 JUMP JUMPDEST JUMPDEST DUP4 JUMPDEST DUP2 DUP2 LT ISZERO PUSH3 0x312 JUMPI DUP1 PUSH3 0x2FD DUP9 DUP3 PUSH3 0x293 JUMP JUMPDEST DUP5 MSTORE PUSH1 0x20 DUP5 ADD SWAP4 POP POP PUSH1 0x20 DUP2 ADD SWAP1 POP PUSH3 0x2E7 JUMP JUMPDEST POP POP POP SWAP4 SWAP3 POP POP POP JUMP JUMPDEST PUSH0 DUP3 PUSH1 0x1F DUP4 ADD SLT PUSH3 0x333 JUMPI PUSH3 0x332 PUSH3 0x181 JUMP JUMPDEST JUMPDEST DUP2 MLOAD PUSH3 0x345 DUP5 DUP3 PUSH1 0x20 DUP7 ADD PUSH3 0x2A9 JUMP JUMPDEST SWAP2 POP POP SWAP3 SWAP2 POP POP JUMP JUMPDEST PUSH0 PUSH1 0x20 DUP3 DUP5 SUB SLT ISZERO PUSH3 0x366 JUMPI PUSH3 0x365 PUSH3 0x179 JUMP JUMPDEST JUMPDEST PUSH0 DUP3 ADD MLOAD PUSH8 0xFFFFFFFFFFFFFFFF DUP2 GT ISZERO PUSH3 0x386 JUMPI PUSH3 0x385 PUSH3 0x17D JUMP JUMPDEST JUMPDEST PUSH3 0x394 DUP5 DUP3 DUP6 ADD PUSH3 0x31C JUMP JUMPDEST SWAP2 POP POP SWAP3 SWAP2 POP POP JUMP JUMPDEST PUSH32 0x4E487B7100000000000000000000000000000000000000000000000000000000 PUSH0 MSTORE PUSH1 0x32 PUSH1 0x4 MSTORE PUSH1 0x24 PUSH0 REVERT JUMPDEST PUSH2 0xC5F DUP1 PUSH3 0x3D8 PUSH0 CODECOPY PUSH0 RETURN INVALID PUSH1 0x80 PUSH1 0x40 MSTORE CALLVALUE DUP1 ISZERO PUSH2 0xF JUMPI PUSH0 DUP1 REVERT JUMPDEST POP PUSH1 0x4 CALLDATASIZE LT PUSH2 0x9C JUMPI PUSH0 CALLDATALOAD PUSH1 0xE0 SHR DUP1 PUSH4 0x785BA4DE GT PUSH2 0x64 JUMPI DUP1 PUSH4 0x785BA4DE EQ PUSH2 0x148 JUMPI DUP1 PUSH4 0x8778B27D EQ PUSH2 0x166 JUMPI DUP1 PUSH4 0x9B19251A EQ PUSH2 0x184 JUMPI DUP1 PUSH4 0xB3F98ADC EQ PUSH2 0x1B4 JUMPI DUP1 PUSH4 0xC1B43357 EQ PUSH2 0x1D0 JUMPI PUSH2 0x9C JUMP JUMPDEST DUP1 PUSH4 0x9EEF43E EQ PUSH2 0xA0 JUMPI DUP1 PUSH4 0x38743904 EQ PUSH2 0xD0 JUMPI DUP1 PUSH4 0x3DD079C0 EQ PUSH2 0xEE JUMPI DUP1 PUSH4 0x5F5300FF EQ PUSH2 0x10C JUMPI DUP1 PUSH4 0x72B4CA47 EQ PUSH2 0x12A JUMPI JUMPDEST PUSH0 DUP1 REVERT JUMPDEST PUSH2 0xBA PUSH1 0x4 DUP1 CALLDATASIZE SUB DUP2 ADD SWAP1 PUSH2 0xB5 SWAP2 SWAP1 PUSH2 0x6FC JUMP JUMPDEST PUSH2 0x200 JUMP JUMPDEST PUSH1 0x40 MLOAD PUSH2 0xC7 SWAP2 SWAP1 PUSH2 0x741 JUMP JUMPDEST PUSH1 0x40 MLOAD DUP1 SWAP2 SUB SWAP1 RETURN JUMPDEST PUSH2 0xD8 PUSH2 0x21D JUMP JUMPDEST PUSH1 0x40 MLOAD PUSH2 0xE5 SWAP2 SWAP1 PUSH2 0x769 JUMP JUMPDEST PUSH1 0x40 MLOAD DUP1 SWAP2 SUB SWAP1 RETURN JUMPDEST PUSH2 0xF6 PUSH2 0x240 JUMP JUMPDEST PUSH1 0x40 MLOAD PUSH2 0x103 SWAP2 SWAP1 PUSH2 0x741 JUMP JUMPDEST PUSH1 0x40 MLOAD DUP1 SWAP2 SUB SWAP1 RETURN JUMPDEST PUSH2 0x114 PUSH2 0x25C JUMP JUMPDEST PUSH1 0x40 MLOAD PUSH2 0x121 SWAP2 SWAP1 PUSH2 0x79A JUMP JUMPDEST PUSH1 0x40 MLOAD DUP1 SWAP2 SUB SWAP1 RETURN JUMPDEST PUSH2 0x132 PUSH2 0x262 JUMP JUMPDEST PUSH1 0x40 MLOAD PUSH2 0x13F SWAP2 SWAP1 PUSH2 0x858 JUMP JUMPDEST PUSH1 0x40 MLOAD DUP1 SWAP2 SUB SWAP1 RETURN JUMPDEST PUSH2 0x150 PUSH2 0x370 JUMP JUMPDEST PUSH1 0x40 MLOAD PUSH2 0x15D SWAP2 SWAP1 PUSH2 0x858 JUMP JUMPDEST PUSH1 0x40 MLOAD DUP1 SWAP2 SUB SWAP1 RETURN JUMPDEST PUSH2 0x16E PUSH2 0x438 JUMP JUMPDEST PUSH1 0x40 MLOAD PUSH2 0x17B SWAP2 SWAP1 PUSH2 0x79A JUMP JUMPDEST PUSH1 0x40 MLOAD DUP1 SWAP2 SUB SWAP1 RETURN JUMPDEST PUSH2 0x19E PUSH1 0x4 DUP1 CALLDATASIZE SUB DUP2 ADD SWAP1 PUSH2 0x199 SWAP2 SWAP1 PUSH2 0x6FC JUMP JUMPDEST PUSH2 0x43E JUMP JUMPDEST PUSH1 0x40 MLOAD PUSH2 0x1AB SWAP2 SWAP1 PUSH2 0x741 JUMP JUMPDEST PUSH1 0x40 MLOAD DUP1 SWAP2 SUB SWAP1 RETURN JUMPDEST PUSH2 0x1CE PUSH1 0x4 DUP1 CALLDATASIZE SUB DUP2 ADD SWAP1 PUSH2 0x1C9 SWAP2 SWAP1 PUSH2 0x894 JUMP JUMPDEST PUSH2 0x45B JUMP JUMPDEST STOP JUMPDEST PUSH2 0x1EA PUSH1 0x4 DUP1 CALLDATASIZE SUB DUP2 ADD SWAP1 PUSH2 0x1E5 SWAP2 SWAP1 PUSH2 0x8F5 JUMP JUMPDEST PUSH2 0x667 JUMP JUMPDEST PUSH1 0x40 MLOAD PUSH2 0x1F7 SWAP2 SWAP1 PUSH2 0x79A JUMP JUMPDEST PUSH1 0x40 MLOAD DUP1 SWAP2 SUB SWAP1 RETURN JUMPDEST PUSH1 0x2 PUSH1 0x20 MSTORE DUP1 PUSH0 MSTORE PUSH1 0x40 PUSH0 KECCAK256 PUSH0 SWAP2 POP SLOAD SWAP1 PUSH2 0x100 EXP SWAP1 DIV PUSH1 0xFF AND DUP2 JUMP JUMPDEST PUSH0 DUP1 SLOAD SWAP1 PUSH2 0x100 EXP SWAP1 DIV PUSH20 0xFFFFFFFFFFFFFFFFFFFFFFFFFFFFFFFFFFFFFFFF AND DUP2 JUMP JUMPDEST PUSH0 PUSH1 0x4 SLOAD PUSH1 0x5 SLOAD SUB PUSH2 0x255 JUMPI PUSH1 0x1 SWAP1 POP PUSH2 0x259 JUMP JUMPDEST PUSH0 SWAP1 POP JUMPDEST SWAP1 JUMP JUMPDEST PUSH1 0x4 SLOAD DUP2 JUMP JUMPDEST PUSH2 0x26A PUSH2 0x67C JUMP JUMPDEST PUSH0 DUP1 SLOAD SWAP1 PUSH2 0x100 EXP SWAP1 DIV PUSH20 0xFFFFFFFFFFFFFFFFFFFFFFFFFFFFFFFFFFFFFFFF AND PUSH20 0xFFFFFFFFFFFFFFFFFFFFFFFFFFFFFFFFFFFFFFFF AND CALLER PUSH20 0xFFFFFFFFFFFFFFFFFFFFFFFFFFFFFFFFFFFFFFFF AND EQ PUSH2 0x2F7 JUMPI PUSH1 0x40 MLOAD PUSH32 0x8C379A000000000000000000000000000000000000000000000000000000000 DUP2 MSTORE PUSH1 0x4 ADD PUSH2 0x2EE SWAP1 PUSH2 0x9A0 JUMP JUMPDEST PUSH1 0x40 MLOAD DUP1 SWAP2 SUB SWAP1 REVERT JUMPDEST PUSH1 0x40 MLOAD DUP1 PUSH1 0x80 ADD PUSH1 0x40 MSTORE DUP1 PUSH1 0x3 PUSH0 DUP1 PUSH1 0xFF AND DUP2 MSTORE PUSH1 0x20 ADD SWAP1 DUP2 MSTORE PUSH1 0x20 ADD PUSH0 KECCAK256 SLOAD DUP2 MSTORE PUSH1 0x20 ADD PUSH1 0x3 PUSH0 PUSH1 0x1 PUSH1 0xFF AND DUP2 MSTORE PUSH1 0x20 ADD SWAP1 DUP2 MSTORE PUSH1 0x20 ADD PUSH0 KECCAK256 SLOAD DUP2 MSTORE PUSH1 0x20 ADD PUSH1 0x3 PUSH0 PUSH1 0x2 PUSH1 0xFF AND DUP2 MSTORE PUSH1 0x20 ADD SWAP1 DUP2 MSTORE PUSH1 0x20 ADD PUSH0 KECCAK256 SLOAD DUP2 MSTORE PUSH1 0x20 ADD PUSH1 0x3 PUSH0 PUSH1 0x3 PUSH1 0xFF AND DUP2 MSTORE PUSH1 0x20 ADD SWAP1 DUP2 MSTORE PUSH1 0x20 ADD PUSH0 KECCAK256 SLOAD DUP2 MSTORE POP SWAP1 POP SWAP1 JUMP JUMPDEST PUSH2 0x378 PUSH2 0x67C JUMP JUMPDEST PUSH1 0x4 SLOAD PUSH1 0x5 SLOAD LT ISZERO PUSH2 0x3BF JUMPI PUSH1 0x40 MLOAD PUSH32 0x8C379A000000000000000000000000000000000000000000000000000000000 DUP2 MSTORE PUSH1 0x4 ADD PUSH2 0x3B6 SWAP1 PUSH2 0xA08 JUMP JUMPDEST PUSH1 0x40 MLOAD DUP1 SWAP2 SUB SWAP1 REVERT JUMPDEST PUSH1 0x40 MLOAD DUP1 PUSH1 0x80 ADD PUSH1 0x40 MSTORE DUP1 PUSH1 0x3 PUSH0 DUP1 PUSH1 0xFF AND DUP2 MSTORE PUSH1 0x20 ADD SWAP1 DUP2 MSTORE PUSH1 0x20 ADD PUSH0 KECCAK256 SLOAD DUP2 MSTORE PUSH1 0x20 ADD PUSH1 0x3 PUSH0 PUSH1 0x1 PUSH1 0xFF AND DUP2 MSTORE PUSH1 0x20 ADD SWAP1 DUP2 MSTORE PUSH1 0x20 ADD PUSH0 KECCAK256 SLOAD DUP2 MSTORE PUSH1 0x20 ADD PUSH1 0x3 PUSH0 PUSH1 0x2 PUSH1 0xFF AND DUP2 MSTORE PUSH1 0x20 ADD SWAP1 DUP2 MSTORE PUSH1 0x20 ADD PUSH0 KECCAK256 SLOAD DUP2 MSTORE PUSH1 0x20 ADD PUSH1 0x3 PUSH0 PUSH1 0x3 PUSH1 0xFF AND DUP2 MSTORE PUSH1 0x20 ADD SWAP1 DUP2 MSTORE PUSH1 0x20 ADD PUSH0 KECCAK256 SLOAD DUP2 MSTORE POP SWAP1 POP SWAP1 JUMP JUMPDEST PUSH1 0x5 SLOAD DUP2 JUMP JUMPDEST PUSH1 0x1 PUSH1 0x20 MSTORE DUP1 PUSH0 MSTORE PUSH1 0x40 PUSH0 KECCAK256 PUSH0 SWAP2 POP SLOAD SWAP1 PUSH2 0x100 EXP SWAP1 DIV PUSH1 0xFF AND DUP2 JUMP JUMPDEST PUSH1 0x1 PUSH0 CALLER PUSH20 0xFFFFFFFFFFFFFFFFFFFFFFFFFFFFFFFFFFFFFFFF AND PUSH20 0xFFFFFFFFFFFFFFFFFFFFFFFFFFFFFFFFFFFFFFFF AND DUP2 MSTORE PUSH1 0x20 ADD SWAP1 DUP2 MSTORE PUSH1 0x20 ADD PUSH0 KECCAK256 PUSH0 SWAP1 SLOAD SWAP1 PUSH2 0x100 EXP SWAP1 DIV PUSH1 0xFF AND PUSH2 0x4E4 JUMPI PUSH1 0x40 MLOAD PUSH32 0x8C379A000000000000000000000000000000000000000000000000000000000 DUP2 MSTORE PUSH1 0x4 ADD PUSH2 0x4DB SWAP1 PUSH2 0xA70 JUMP JUMPDEST PUSH1 0x40 MLOAD DUP1 SWAP2 SUB SWAP1 REVERT JUMPDEST PUSH1 0x2 PUSH0 CALLER PUSH20 0xFFFFFFFFFFFFFFFFFFFFFFFFFFFFFFFFFFFFFFFF AND PUSH20 0xFFFFFFFFFFFFFFFFFFFFFFFFFFFFFFFFFFFFFFFF AND DUP2 MSTORE PUSH1 0x20 ADD SWAP1 DUP2 MSTORE PUSH1 0x20 ADD PUSH0 KECCAK256 PUSH0 SWAP1 SLOAD SWAP1 PUSH2 0x100 EXP SWAP1 DIV PUSH1 0xFF AND ISZERO PUSH2 0x56E JUMPI PUSH1 0x40 MLOAD PUSH32 0x8C379A000000000000000000000000000000000000000000000000000000000 DUP2 MSTORE PUSH1 0x4 ADD PUSH2 0x565 SWAP1 PUSH2 0xAD8 JUMP JUMPDEST PUSH1 0x40 MLOAD DUP1 SWAP2 SUB SWAP1 REVERT JUMPDEST PUSH1 0x3 PUSH0 DUP3 PUSH1 0x3 DUP2 GT ISZERO PUSH2 0x584 JUMPI PUSH2 0x583 PUSH2 0xAF6 JUMP JUMPDEST JUMPDEST PUSH1 0xFF AND PUSH1 0xFF AND DUP2 MSTORE PUSH1 0x20 ADD SWAP1 DUP2 MSTORE PUSH1 0x20 ADD PUSH0 KECCAK256 PUSH0 DUP2 SLOAD DUP1 SWAP3 SWAP2 SWAP1 PUSH2 0x5A7 SWAP1 PUSH2 0xB50 JUMP JUMPDEST SWAP2 SWAP1 POP SSTORE POP PUSH1 0x1 PUSH1 0x2 PUSH0 CALLER PUSH20 0xFFFFFFFFFFFFFFFFFFFFFFFFFFFFFFFFFFFFFFFF AND PUSH20 0xFFFFFFFFFFFFFFFFFFFFFFFFFFFFFFFFFFFFFFFF AND DUP2 MSTORE PUSH1 0x20 ADD SWAP1 DUP2 MSTORE PUSH1 0x20 ADD PUSH0 KECCAK256 PUSH0 PUSH2 0x100 EXP DUP2 SLOAD DUP2 PUSH1 0xFF MUL NOT AND SWAP1 DUP4 ISZERO ISZERO MUL OR SWAP1 SSTORE POP PUSH1 0x1 PUSH1 0x5 SLOAD PUSH2 0x610 SWAP2 SWAP1 PUSH2 0xB97 JUMP JUMPDEST PUSH1 0x5 DUP2 SWAP1 SSTORE POP CALLER PUSH20 0xFFFFFFFFFFFFFFFFFFFFFFFFFFFFFFFFFFFFFFFF AND PUSH32 0x14075E33DFFDC00C1FCAF75D0F86D667170BE57FB566B12B41B499E5FA53B125 DUP3 PUSH1 0x40 MLOAD PUSH2 0x65C SWAP2 SWAP1 PUSH2 0xC10 JUMP JUMPDEST PUSH1 0x40 MLOAD DUP1 SWAP2 SUB SWAP1 LOG2 POP JUMP JUMPDEST PUSH1 0x3 PUSH1 0x20 MSTORE DUP1 PUSH0 MSTORE PUSH1 0x40 PUSH0 KECCAK256 PUSH0 SWAP2 POP SWAP1 POP SLOAD DUP2 JUMP JUMPDEST PUSH1 0x40 MLOAD DUP1 PUSH1 0x80 ADD PUSH1 0x40 MSTORE DUP1 PUSH1 0x4 SWAP1 PUSH1 0x20 DUP3 MUL DUP1 CALLDATASIZE DUP4 CALLDATACOPY DUP1 DUP3 ADD SWAP2 POP POP SWAP1 POP POP SWAP1 JUMP JUMPDEST PUSH0 DUP1 REVERT JUMPDEST PUSH0 PUSH20 0xFFFFFFFFFFFFFFFFFFFFFFFFFFFFFFFFFFFFFFFF DUP3 AND SWAP1 POP SWAP2 SWAP1 POP JUMP JUMPDEST PUSH0 PUSH2 0x6CB DUP3 PUSH2 0x6A2 JUMP JUMPDEST SWAP1 POP SWAP2 SWAP1 POP JUMP JUMPDEST PUSH2 0x6DB DUP2 PUSH2 0x6C1 JUMP JUMPDEST DUP2 EQ PUSH2 0x6E5 JUMPI PUSH0 DUP1 REVERT JUMPDEST POP JUMP JUMPDEST PUSH0 DUP2 CALLDATALOAD SWAP1 POP PUSH2 0x6F6 DUP2 PUSH2 0x6D2 JUMP JUMPDEST SWAP3 SWAP2 POP POP JUMP JUMPDEST PUSH0 PUSH1 0x20 DUP3 DUP5 SUB SLT ISZERO PUSH2 0x711 JUMPI PUSH2 0x710 PUSH2 0x69E JUMP JUMPDEST JUMPDEST PUSH0 PUSH2 0x71E DUP5 DUP3 DUP6 ADD PUSH2 0x6E8 JUMP JUMPDEST SWAP2 POP POP SWAP3 SWAP2 POP POP JUMP JUMPDEST PUSH0 DUP2 ISZERO ISZERO SWAP1 POP SWAP2 SWAP1 POP JUMP JUMPDEST PUSH2 0x73B DUP2 PUSH2 0x727 JUMP JUMPDEST DUP3 MSTORE POP POP JUMP JUMPDEST PUSH0 PUSH1 0x20 DUP3 ADD SWAP1 POP PUSH2 0x754 PUSH0 DUP4 ADD DUP5 PUSH2 0x732 JUMP JUMPDEST SWAP3 SWAP2 POP POP JUMP JUMPDEST PUSH2 0x763 DUP2 PUSH2 0x6C1 JUMP JUMPDEST DUP3 MSTORE POP POP JUMP JUMPDEST PUSH0 PUSH1 0x20 DUP3 ADD SWAP1 POP PUSH2 0x77C PUSH0 DUP4 ADD DUP5 PUSH2 0x75A JUMP JUMPDEST SWAP3 SWAP2 POP POP JUMP JUMPDEST PUSH0 DUP2 SWAP1 POP SWAP2 SWAP1 POP JUMP JUMPDEST PUSH2 0x794 DUP2 PUSH2 0x782 JUMP JUMPDEST DUP3 MSTORE POP POP JUMP JUMPDEST PUSH0 PUSH1 0x20 DUP3 ADD SWAP1 POP PUSH2 0x7AD PUSH0 DUP4 ADD DUP5 PUSH2 0x78B JUMP JUMPDEST SWAP3 SWAP2 POP POP JUMP JUMPDEST PUSH0 PUSH1 0x4 SWAP1 POP SWAP2 SWAP1 POP JUMP JUMPDEST PUSH0 DUP2 SWAP1 POP SWAP3 SWAP2 POP POP JUMP JUMPDEST PUSH0 DUP2 SWAP1 POP SWAP2 SWAP1 POP JUMP JUMPDEST PUSH2 0x7D9 DUP2 PUSH2 0x782 JUMP JUMPDEST DUP3 MSTORE POP POP JUMP JUMPDEST PUSH0 PUSH2 0x7EA DUP4 DUP4 PUSH2 0x7D0 JUMP JUMPDEST PUSH1 0x20 DUP4 ADD SWAP1 POP SWAP3 SWAP2 POP POP JUMP JUMPDEST PUSH0 PUSH1 0x20 DUP3 ADD SWAP1 POP SWAP2 SWAP1 POP JUMP JUMPDEST PUSH2 0x80B DUP2 PUSH2 0x7B3 JUMP JUMPDEST PUSH2 0x815 DUP2 DUP5 PUSH2 0x7BD JUMP JUMPDEST SWAP3 POP PUSH2 0x820 DUP3 PUSH2 0x7C7 JUMP JUMPDEST DUP1 PUSH0 JUMPDEST DUP4 DUP2 LT ISZERO PUSH2 0x850 JUMPI DUP2 MLOAD PUSH2 0x837 DUP8 DUP3 PUSH2 0x7DF JUMP JUMPDEST SWAP7 POP PUSH2 0x842 DUP4 PUSH2 0x7F6 JUMP JUMPDEST SWAP3 POP POP PUSH1 0x1 DUP2 ADD SWAP1 POP PUSH2 0x823 JUMP JUMPDEST POP POP POP POP POP POP JUMP JUMPDEST PUSH0 PUSH1 0x80 DUP3 ADD SWAP1 POP PUSH2 0x86B PUSH0 DUP4 ADD DUP5 PUSH2 0x802 JUMP JUMPDEST SWAP3 SWAP2 POP POP JUMP JUMPDEST PUSH1 0x4 DUP2 LT PUSH2 0x87D JUMPI PUSH0 DUP1 REVERT JUMPDEST POP JUMP JUMPDEST PUSH0 DUP2 CALLDATALOAD SWAP1 POP PUSH2 0x88E DUP2 PUSH2 0x871 JUMP JUMPDEST SWAP3 SWAP2 POP POP JUMP JUMPDEST PUSH0 PUSH1 0x20 DUP3 DUP5 SUB SLT ISZERO PUSH2 0x8A9 JUMPI PUSH2 0x8A8 PUSH2 0x69E JUMP JUMPDEST JUMPDEST PUSH0 PUSH2 0x8B6 DUP5 DUP3 DUP6 ADD PUSH2 0x880 JUMP JUMPDEST SWAP2 POP POP SWAP3 SWAP2 POP POP JUMP JUMPDEST PUSH0 PUSH1 0xFF DUP3 AND SWAP1 POP SWAP2 SWAP1 POP JUMP JUMPDEST PUSH2 0x8D4 DUP2 PUSH2 0x8BF JUMP JUMPDEST DUP2 EQ PUSH2 0x8DE JUMPI PUSH0 DUP1 REVERT JUMPDEST POP JUMP JUMPDEST PUSH0 DUP2 CALLDATALOAD SWAP1 POP PUSH2 0x8EF DUP2 PUSH2 0x8CB JUMP JUMPDEST SWAP3 SWAP2 POP POP JUMP JUMPDEST PUSH0 PUSH1 0x20 DUP3 DUP5 SUB SLT ISZERO PUSH2 0x90A JUMPI PUSH2 0x909 PUSH2 0x69E JUMP JUMPDEST JUMPDEST PUSH0 PUSH2 0x917 DUP5 DUP3 DUP6 ADD PUSH2 0x8E1 JUMP JUMPDEST SWAP2 POP POP SWAP3 SWAP2 POP POP JUMP JUMPDEST PUSH0 DUP3 DUP3 MSTORE PUSH1 0x20 DUP3 ADD SWAP1 POP SWAP3 SWAP2 POP POP JUMP JUMPDEST PUSH32 0x4F6E6C79206D6F64657261746F722063616E2063616C6C20746869732066756E PUSH0 DUP3 ADD MSTORE PUSH32 0x6374696F6E000000000000000000000000000000000000000000000000000000 PUSH1 0x20 DUP3 ADD MSTORE POP JUMP JUMPDEST PUSH0 PUSH2 0x98A PUSH1 0x25 DUP4 PUSH2 0x920 JUMP JUMPDEST SWAP2 POP PUSH2 0x995 DUP3 PUSH2 0x930 JUMP JUMPDEST PUSH1 0x40 DUP3 ADD SWAP1 POP SWAP2 SWAP1 POP JUMP JUMPDEST PUSH0 PUSH1 0x20 DUP3 ADD SWAP1 POP DUP2 DUP2 SUB PUSH0 DUP4 ADD MSTORE PUSH2 0x9B7 DUP2 PUSH2 0x97E JUMP JUMPDEST SWAP1 POP SWAP2 SWAP1 POP JUMP JUMPDEST PUSH32 0x566F74696E6720686173206E6F7420656E646564207965740000000000000000 PUSH0 DUP3 ADD MSTORE POP JUMP JUMPDEST PUSH0 PUSH2 0x9F2 PUSH1 0x18 DUP4 PUSH2 0x920 JUMP JUMPDEST SWAP2 POP PUSH2 0x9FD DUP3 PUSH2 0x9BE JUMP JUMPDEST PUSH1 0x20 DUP3 ADD SWAP1 POP SWAP2 SWAP1 POP JUMP JUMPDEST PUSH0 PUSH1 0x20 DUP3 ADD SWAP1 POP DUP2 DUP2 SUB PUSH0 DUP4 ADD MSTORE PUSH2 0xA1F DUP2 PUSH2 0x9E6 JUMP JUMPDEST SWAP1 POP SWAP2 SWAP1 POP JUMP JUMPDEST PUSH32 0x4E6F7420696E636C7564656420696E2077686974656C69737400000000000000 PUSH0 DUP3 ADD MSTORE POP JUMP JUMPDEST PUSH0 PUSH2 0xA5A PUSH1 0x19 DUP4 PUSH2 0x920 JUMP JUMPDEST SWAP2 POP PUSH2 0xA65 DUP3 PUSH2 0xA26 JUMP JUMPDEST PUSH1 0x20 DUP3 ADD SWAP1 POP SWAP2 SWAP1 POP JUMP JUMPDEST PUSH0 PUSH1 0x20 DUP3 ADD SWAP1 POP DUP2 DUP2 SUB PUSH0 DUP4 ADD MSTORE PUSH2 0xA87 DUP2 PUSH2 0xA4E JUMP JUMPDEST SWAP1 POP SWAP2 SWAP1 POP JUMP JUMPDEST PUSH32 0x596F75206861766520616C726561647920766F74656400000000000000000000 PUSH0 DUP3 ADD MSTORE POP JUMP JUMPDEST PUSH0 PUSH2 0xAC2 PUSH1 0x16 DUP4 PUSH2 0x920 JUMP JUMPDEST SWAP2 POP PUSH2 0xACD DUP3 PUSH2 0xA8E JUMP JUMPDEST PUSH1 0x20 DUP3 ADD SWAP1 POP SWAP2 SWAP1 POP JUMP JUMPDEST PUSH0 PUSH1 0x20 DUP3 ADD SWAP1 POP DUP2 DUP2 SUB PUSH0 DUP4 ADD MSTORE PUSH2 0xAEF DUP2 PUSH2 0xAB6 JUMP JUMPDEST SWAP1 POP SWAP2 SWAP1 POP JUMP JUMPDEST PUSH32 0x4E487B7100000000000000000000000000000000000000000000000000000000 PUSH0 MSTORE PUSH1 0x21 PUSH1 0x4 MSTORE PUSH1 0x24 PUSH0 REVERT JUMPDEST PUSH32 0x4E487B7100000000000000000000000000000000000000000000000000000000 PUSH0 MSTORE PUSH1 0x11 PUSH1 0x4 MSTORE PUSH1 0x24 PUSH0 REVERT JUMPDEST PUSH0 PUSH2 0xB5A DUP3 PUSH2 0x782 JUMP JUMPDEST SWAP2 POP PUSH32 0xFFFFFFFFFFFFFFFFFFFFFFFFFFFFFFFFFFFFFFFFFFFFFFFFFFFFFFFFFFFFFFFF DUP3 SUB PUSH2 0xB8C JUMPI PUSH2 0xB8B PUSH2 0xB23 JUMP JUMPDEST JUMPDEST PUSH1 0x1 DUP3 ADD SWAP1 POP SWAP2 SWAP1 POP JUMP JUMPDEST PUSH0 PUSH2 0xBA1 DUP3 PUSH2 0x782 JUMP JUMPDEST SWAP2 POP PUSH2 0xBAC DUP4 PUSH2 0x782 JUMP JUMPDEST SWAP3 POP DUP3 DUP3 ADD SWAP1 POP DUP1 DUP3 GT ISZERO PUSH2 0xBC4 JUMPI PUSH2 0xBC3 PUSH2 0xB23 JUMP JUMPDEST JUMPDEST SWAP3 SWAP2 POP POP JUMP JUMPDEST PUSH1 0x4 DUP2 LT PUSH2 0xBDB JUMPI PUSH2 0xBDA PUSH2 0xAF6 JUMP JUMPDEST JUMPDEST POP JUMP JUMPDEST PUSH0 DUP2 SWAP1 POP PUSH2 0xBEB DUP3 PUSH2 0xBCA JUMP JUMPDEST SWAP2 SWAP1 POP JUMP JUMPDEST PUSH0 PUSH2 0xBFA DUP3 PUSH2 0xBDE JUMP JUMPDEST SWAP1 POP SWAP2 SWAP1 POP JUMP JUMPDEST PUSH2 0xC0A DUP2 PUSH2 0xBF0 JUMP JUMPDEST DUP3 MSTORE POP POP JUMP JUMPDEST PUSH0 PUSH1 0x20 DUP3 ADD SWAP1 POP PUSH2 0xC23 PUSH0 DUP4 ADD DUP5 PUSH2 0xC01 JUMP JUMPDEST SWAP3 SWAP2 POP POP JUMP INVALID LOG2 PUSH5 0x6970667358 0x22 SLT KECCAK256 0x28 SELFBALANCE 0xAB 0xA7 0xD6 PUSH10 0xC6345706ED04D6E6EE2C JUMPI DUP8 LOG0 0xD5 CALLCODE 0xBC INVALID 0xDE SWAP13 CALLDATASIZE 0xE3 0xC OR 0xD7 DUP6 0xC7 PUSH5 0x736F6C6343 STOP ADDMOD XOR STOP CALLER "
				},
				"gasEstimates": {
					"creation": {
						"codeDepositCost": "633400",
						"executionCost": "infinite",
						"totalCost": "infinite"
					},
					"external": {
						"getCurrentVotes()": "infinite",
						"getFinalResults()": "infinite",
						"hasVoted(address)": "2834",
						"hasVotingEnded()": "4617",
						"moderator()": "2528",
						"totalVoters()": "2492",
						"vote(uint8)": "infinite",
						"votes(uint8)": "2848",
						"votesCount()": "2447",
						"whitelist(address)": "2877"
					}
				},
				"methodIdentifiers": {
					"getCurrentVotes()": "72b4ca47",
					"getFinalResults()": "785ba4de",
					"hasVoted(address)": "09eef43e",
					"hasVotingEnded()": "3dd079c0",
					"moderator()": "38743904",
					"totalVoters()": "5f5300ff",
					"vote(uint8)": "b3f98adc",
					"votes(uint8)": "c1b43357",
					"votesCount()": "8778b27d",
					"whitelist(address)": "9b19251a"
				}
			},
			"storageLayout": {
				"storage": [
					{
						"astId": 3,
						"contract": "Vote.sol:Vote",
						"label": "moderator",
						"offset": 0,
						"slot": "0",
						"type": "t_address"
					},
					{
						"astId": 7,
						"contract": "Vote.sol:Vote",
						"label": "whitelist",
						"offset": 0,
						"slot": "1",
						"type": "t_mapping(t_address,t_bool)"
					},
					{
						"astId": 11,
						"contract": "Vote.sol:Vote",
						"label": "hasVoted",
						"offset": 0,
						"slot": "2",
						"type": "t_mapping(t_address,t_bool)"
					},
					{
						"astId": 15,
						"contract": "Vote.sol:Vote",
						"label": "votes",
						"offset": 0,
						"slot": "3",
						"type": "t_mapping(t_uint8,t_uint256)"
					},
					{
						"astId": 17,
						"contract": "Vote.sol:Vote",
						"label": "totalVoters",
						"offset": 0,
						"slot": "4",
						"type": "t_uint256"
					},
					{
						"astId": 19,
						"contract": "Vote.sol:Vote",
						"label": "votesCount",
						"offset": 0,
						"slot": "5",
						"type": "t_uint256"
					}
				],
				"types": {
					"t_address": {
						"encoding": "inplace",
						"label": "address",
						"numberOfBytes": "20"
					},
					"t_bool": {
						"encoding": "inplace",
						"label": "bool",
						"numberOfBytes": "1"
					},
					"t_mapping(t_address,t_bool)": {
						"encoding": "mapping",
						"key": "t_address",
						"label": "mapping(address => bool)",
						"numberOfBytes": "32",
						"value": "t_bool"
					},
					"t_mapping(t_uint8,t_uint256)": {
						"encoding": "mapping",
						"key": "t_uint8",
						"label": "mapping(uint8 => uint256)",
						"numberOfBytes": "32",
						"value": "t_uint256"
					},
					"t_uint256": {
						"encoding": "inplace",
						"label": "uint256",
						"numberOfBytes": "32"
					},
					"t_uint8": {
						"encoding": "inplace",
						"label": "uint8",
						"numberOfBytes": "1"
					}
				}
			},
			"userdoc": {
				"kind": "user",
				"methods": {},
				"version": 1
			}
		}
	}
}